{"contracts/BASTicketNFT.sol":{"BASTicketNFT":{"abi":[{"inputs":[{"internalType":"address","name":"initialOwner","type":"address"}],"stateMutability":"nonpayable","type":"constructor"},{"inputs":[{"internalType":"uint256","name":"numerator","type":"uint256"},{"internalType":"uint256","name":"denominator","type":"uint256"}],"name":"ERC2981InvalidDefaultRoyalty","type":"error"},{"inputs":[{"internalType":"address","name":"receiver","type":"address"}],"name":"ERC2981InvalidDefaultRoyaltyReceiver","type":"error"},{"inputs":[{"internalType":"uint256","name":"tokenId","type":"uint256"},{"internalType":"uint256","name":"numerator","type":"uint256"},{"internalType":"uint256","name":"denominator","type":"uint256"}],"name":"ERC2981InvalidTokenRoyalty","type":"error"},{"inputs":[{"internalType":"uint256","name":"tokenId","type":"uint256"},{"internalType":"address","name":"receiver","type":"address"}],"name":"ERC2981InvalidTokenRoyaltyReceiver","type":"error"},{"inputs":[{"internalType":"address","name":"sender","type":"address"},{"internalType":"uint256","name":"tokenId","type":"uint256"},{"internalType":"address","name":"owner","type":"address"}],"name":"ERC721IncorrectOwner","type":"error"},{"inputs":[{"internalType":"address","name":"operator","type":"address"},{"internalType":"uint256","name":"tokenId","type":"uint256"}],"name":"ERC721InsufficientApproval","type":"error"},{"inputs":[{"internalType":"address","name":"approver","type":"address"}],"name":"ERC721InvalidApprover","type":"error"},{"inputs":[{"internalType":"address","name":"operator","type":"address"}],"name":"ERC721InvalidOperator","type":"error"},{"inputs":[{"internalType":"address","name":"owner","type":"address"}],"name":"ERC721InvalidOwner","type":"error"},{"inputs":[{"internalType":"address","name":"receiver","type":"address"}],"name":"ERC721InvalidReceiver","type":"error"},{"inputs":[{"internalType":"address","name":"sender","type":"address"}],"name":"ERC721InvalidSender","type":"error"},{"inputs":[{"internalType":"uint256","name":"tokenId","type":"uint256"}],"name":"ERC721NonexistentToken","type":"error"},{"inputs":[{"internalType":"address","name":"owner","type":"address"}],"name":"OwnableInvalidOwner","type":"error"},{"inputs":[{"internalType":"address","name":"account","type":"address"}],"name":"OwnableUnauthorizedAccount","type":"error"},{"anonymous":false,"inputs":[{"indexed":true,"internalType":"address","name":"owner","type":"address"},{"indexed":true,"internalType":"address","name":"approved","type":"address"},{"indexed":true,"internalType":"uint256","name":"tokenId","type":"uint256"}],"name":"Approval","type":"event"},{"anonymous":false,"inputs":[{"indexed":true,"internalType":"address","name":"owner","type":"address"},{"indexed":true,"internalType":"address","name":"operator","type":"address"},{"indexed":false,"internalType":"bool","name":"approved","type":"bool"}],"name":"ApprovalForAll","type":"event"},{"anonymous":false,"inputs":[{"indexed":false,"internalType":"uint256","name":"_fromTokenId","type":"uint256"},{"indexed":false,"internalType":"uint256","name":"_toTokenId","type":"uint256"}],"name":"BatchMetadataUpdate","type":"event"},{"anonymous":false,"inputs":[{"indexed":false,"internalType":"uint256","name":"_tokenId","type":"uint256"}],"name":"MetadataUpdate","type":"event"},{"anonymous":false,"inputs":[{"indexed":true,"internalType":"address","name":"previousOwner","type":"address"},{"indexed":true,"internalType":"address","name":"newOwner","type":"address"}],"name":"OwnershipTransferred","type":"event"},{"anonymous":false,"inputs":[{"indexed":true,"internalType":"uint256","name":"tokenId","type":"uint256"}],"name":"TicketLocked","type":"event"},{"anonymous":false,"inputs":[{"indexed":true,"internalType":"address","name":"to","type":"address"},{"indexed":true,"internalType":"uint256","name":"tokenId","type":"uint256"},{"indexed":false,"internalType":"string","name":"uri","type":"string"}],"name":"TicketMinted","type":"event"},{"anonymous":false,"inputs":[{"indexed":true,"internalType":"uint256","name":"tokenId","type":"uint256"}],"name":"TicketUnlocked","type":"event"},{"anonymous":false,"inputs":[{"indexed":true,"internalType":"address","name":"from","type":"address"},{"indexed":true,"internalType":"address","name":"to","type":"address"},{"indexed":true,"internalType":"uint256","name":"tokenId","type":"uint256"}],"name":"Transfer","type":"event"},{"inputs":[{"internalType":"address","name":"to","type":"address"},{"internalType":"uint256","name":"tokenId","type":"uint256"}],"name":"approve","outputs":[],"stateMutability":"nonpayable","type":"function"},{"inputs":[{"internalType":"address","name":"owner","type":"address"}],"name":"balanceOf","outputs":[{"internalType":"uint256","name":"","type":"uint256"}],"stateMutability":"view","type":"function"},{"inputs":[{"internalType":"uint256","name":"tokenId","type":"uint256"}],"name":"burn","outputs":[],"stateMutability":"nonpayable","type":"function"},{"inputs":[{"internalType":"uint256","name":"tokenId","type":"uint256"}],"name":"getApproved","outputs":[{"internalType":"address","name":"","type":"address"}],"stateMutability":"view","type":"function"},{"inputs":[{"internalType":"address","name":"owner","type":"address"},{"internalType":"address","name":"operator","type":"address"}],"name":"isApprovedForAll","outputs":[{"internalType":"bool","name":"","type":"bool"}],"stateMutability":"view","type":"function"},{"inputs":[{"internalType":"uint256","name":"","type":"uint256"}],"name":"isLocked","outputs":[{"internalType":"bool","name":"","type":"bool"}],"stateMutability":"view","type":"function"},{"inputs":[{"internalType":"uint256","name":"tokenId","type":"uint256"}],"name":"lockTicket","outputs":[],"stateMutability":"nonpayable","type":"function"},{"inputs":[{"internalType":"address","name":"to","type":"address"},{"internalType":"string","name":"uri","type":"string"}],"name":"mintTicket","outputs":[{"internalType":"uint256","name":"","type":"uint256"}],"stateMutability":"nonpayable","type":"function"},{"inputs":[],"name":"name","outputs":[{"internalType":"string","name":"","type":"string"}],"stateMutability":"view","type":"function"},{"inputs":[],"name":"owner","outputs":[{"internalType":"address","name":"","type":"address"}],"stateMutability":"view","type":"function"},{"inputs":[{"internalType":"uint256","name":"tokenId","type":"uint256"}],"name":"ownerOf","outputs":[{"internalType":"address","name":"","type":"address"}],"stateMutability":"view","type":"function"},{"inputs":[],"name":"renounceOwnership","outputs":[],"stateMutability":"nonpayable","type":"function"},{"inputs":[{"internalType":"uint256","name":"tokenId","type":"uint256"},{"internalType":"uint256","name":"salePrice","type":"uint256"}],"name":"royaltyInfo","outputs":[{"internalType":"address","name":"receiver","type":"address"},{"internalType":"uint256","name":"amount","type":"uint256"}],"stateMutability":"view","type":"function"},{"inputs":[{"internalType":"address","name":"from","type":"address"},{"internalType":"address","name":"to","type":"address"},{"internalType":"uint256","name":"tokenId","type":"uint256"}],"name":"safeTransferFrom","outputs":[],"stateMutability":"nonpayable","type":"function"},{"inputs":[{"internalType":"address","name":"from","type":"address"},{"internalType":"address","name":"to","type":"address"},{"internalType":"uint256","name":"tokenId","type":"uint256"},{"internalType":"bytes","name":"data","type":"bytes"}],"name":"safeTransferFrom","outputs":[],"stateMutability":"nonpayable","type":"function"},{"inputs":[{"internalType":"address","name":"operator","type":"address"},{"internalType":"bool","name":"approved","type":"bool"}],"name":"setApprovalForAll","outputs":[],"stateMutability":"nonpayable","type":"function"},{"inputs":[{"internalType":"uint256","name":"tokenId","type":"uint256"},{"internalType":"address","name":"receiver","type":"address"},{"internalType":"uint96","name":"feeNumerator","type":"uint96"}],"name":"setTokenRoyalty","outputs":[],"stateMutability":"nonpayable","type":"function"},{"inputs":[{"internalType":"bytes4","name":"interfaceId","type":"bytes4"}],"name":"supportsInterface","outputs":[{"internalType":"bool","name":"","type":"bool"}],"stateMutability":"view","type":"function"},{"inputs":[],"name":"symbol","outputs":[{"internalType":"string","name":"","type":"string"}],"stateMutability":"view","type":"function"},{"inputs":[{"internalType":"uint256","name":"tokenId","type":"uint256"}],"name":"tokenURI","outputs":[{"internalType":"string","name":"","type":"string"}],"stateMutability":"view","type":"function"},{"inputs":[{"internalType":"address","name":"from","type":"address"},{"internalType":"address","name":"to","type":"address"},{"internalType":"uint256","name":"tokenId","type":"uint256"}],"name":"transferFrom","outputs":[],"stateMutability":"nonpayable","type":"function"},{"inputs":[{"internalType":"address","name":"newOwner","type":"address"}],"name":"transferOwnership","outputs":[],"stateMutability":"nonpayable","type":"function"},{"inputs":[{"internalType":"uint256","name":"tokenId","type":"uint256"}],"name":"unlockTicket","outputs":[],"stateMutability":"nonpayable","type":"function"}],"evm":{"bytecode":{"linkReferences":{},"object":"608060405234801562000010575f80fd5b5060405162001d1738038062001d178339810160408190526200003391620001dd565b806040518060400160405280600a815260200169109054c8151a58dad95d60b21b81525060405180604001604052806004815260200163109054d560e21b815250815f9081620000849190620002aa565b506001620000938282620002aa565b5050506001600160a01b038116620000c557604051631e4fbdf760e01b81525f60048201526024015b60405180910390fd5b620000d081620000e6565b50620000df816101f462000137565b5062000376565b600980546001600160a01b038381166001600160a01b0319831681179093556040519116919082907f8be0079c531659141344cd1fd0a4f28419497f9722a3daafe3b4186f6b6457e0905f90a35050565b6127106001600160601b0382168110156200017857604051636f483d0960e01b81526001600160601b038316600482015260248101829052604401620000bc565b6001600160a01b038316620001a357604051635b6cc80560e11b81525f6004820152602401620000bc565b50604080518082019091526001600160a01b039092168083526001600160601b039091166020909201829052600160a01b90910217600755565b5f60208284031215620001ee575f80fd5b81516001600160a01b038116811462000205575f80fd5b9392505050565b634e487b7160e01b5f52604160045260245ffd5b600181811c908216806200023557607f821691505b6020821081036200025457634e487b7160e01b5f52602260045260245ffd5b50919050565b601f821115620002a557805f5260205f20601f840160051c81016020851015620002815750805b601f840160051c820191505b81811015620002a2575f81556001016200028d565b50505b505050565b81516001600160401b03811115620002c657620002c66200020c565b620002de81620002d7845462000220565b846200025a565b602080601f83116001811462000314575f8415620002fc5750858301515b5f19600386901b1c1916600185901b1785556200036e565b5f85815260208120601f198616915b82811015620003445788860151825594840194600190910190840162000323565b50858210156200036257878501515f19600388901b60f8161c191681555b505060018460011b0185555b505050505050565b61199380620003845f395ff3fe608060405234801561000f575f80fd5b5060043610610148575f3560e01c80636352211e116100bf578063a22cb46511610079578063a22cb465146102d5578063b88d4fde146102e8578063c87b56dd146102fb578063e985e9c51461030e578063f2fde38b14610321578063f6aacfb114610334575f80fd5b80636352211e1461027b57806370a082311461028e578063715018a6146102a157806371e20902146102a95780638da5cb5b146102bc57806395d89b41146102cd575f80fd5b806323b872dd1161011057806323b872dd146101dc5780632a55205a146101ef57806342842e0e1461022157806342966c68146102345780635388842c146102475780635944c75314610268575f80fd5b806301ffc9a71461014c57806306fdde0314610174578063081812fc14610189578063095ea7b3146101b457806310bcbec7146101c9575b5f80fd5b61015f61015a3660046113ea565b610356565b60405190151581526020015b60405180910390f35b61017c610366565b60405161016b9190611452565b61019c610197366004611464565b6103f5565b6040516001600160a01b03909116815260200161016b565b6101c76101c2366004611496565b61041c565b005b6101c76101d7366004611464565b61042b565b6101c76101ea3660046114be565b6104d2565b6102026101fd3660046114f7565b61055b565b604080516001600160a01b03909316835260208301919091520161016b565b6101c761022f3660046114be565b6105de565b6101c7610242366004611464565b6105fd565b61025a61025536600461159e565b610611565b60405190815260200161016b565b6101c76102763660046115fc565b61068d565b61019c610289366004611464565b6106a0565b61025a61029c366004611644565b6106aa565b6101c76106ef565b6101c76102b7366004611464565b610702565b6009546001600160a01b031661019c565b61017c6107a7565b6101c76102e336600461165d565b6107b6565b6101c76102f6366004611696565b6107c1565b61017c610309366004611464565b6107d9565b61015f61031c36600461170d565b6107e4565b6101c761032f366004611644565b610811565b61015f610342366004611464565b600b6020525f908152604090205460ff1681565b5f6103608261084b565b92915050565b60605f80546103749061173e565b80601f01602080910402602001604051908101604052809291908181526020018280546103a09061173e565b80156103eb5780601f106103c2576101008083540402835291602001916103eb565b820191905f5260205f20905b8154815290600101906020018083116103ce57829003601f168201915b5050505050905090565b5f6103ff8261086f565b505f828152600460205260409020546001600160a01b0316610360565b6104278282336108a7565b5050565b6104336108b4565b5f818152600260205260409020546001600160a01b03166104935760405162461bcd60e51b8152602060048201526015602482015274151a58dad95d08191bd95cc81b9bdd08195e1a5cdd605a1b60448201526064015b60405180910390fd5b5f818152600b6020526040808220805460ff191690555182917f2c0c680ae904e095d6fc75bb8dc3619de3a3a52d161df3cc92cbce36225f489e91a250565b6001600160a01b0382166104fb57604051633250574960e11b81525f600482015260240161048a565b5f6105078383336108e1565b9050836001600160a01b0316816001600160a01b031614610555576040516364283d7b60e01b81526001600160a01b038086166004830152602482018490528216604482015260640161048a565b50505050565b5f82815260086020526040812080548291906001600160a01b03811690600160a01b90046001600160601b0316816105ae5750506007546001600160a01b03811690600160a01b90046001600160601b03165b5f6127106105c56001600160601b0384168961178a565b6105cf91906117a1565b92989297509195505050505050565b6105f883838360405180602001604052805f8152506107c1565b505050565b6106056108b4565b61060e81610997565b50565b5f61061a6108b4565b600a80545f918261062a836117c0565b91905055905061063a84826109cf565b61064481846109e8565b80846001600160a01b03167ff16f1e8b680ea7f1e8a1f849eb82762cba60ddcef854d36909e3173483281c8c8560405161067e9190611452565b60405180910390a39392505050565b6106956108b4565b6105f8838383610a37565b5f6103608261086f565b5f6001600160a01b0382166106d4576040516322718ad960e21b81525f600482015260240161048a565b506001600160a01b03165f9081526003602052604090205490565b6106f76108b4565b6107005f610af7565b565b61070a6108b4565b5f818152600260205260409020546001600160a01b03166107655760405162461bcd60e51b8152602060048201526015602482015274151a58dad95d08191bd95cc81b9bdd08195e1a5cdd605a1b604482015260640161048a565b5f818152600b6020526040808220805460ff191660011790555182917f34307a3f5fca60843fdf0d44a7fe1daa84960c21ce84e4d1ecae51d9114cac5991a250565b6060600180546103749061173e565b610427338383610b48565b6107cc8484846104d2565b6105553385858585610c0f565b606061036082610d37565b6001600160a01b039182165f90815260056020908152604080832093909416825291909152205460ff1690565b6108196108b4565b6001600160a01b03811661084257604051631e4fbdf760e01b81525f600482015260240161048a565b61060e81610af7565b5f6001600160e01b0319821663152a902d60e11b1480610360575061036082610db8565b5f818152600260205260408120546001600160a01b03168061036057604051637e27328960e01b81526004810184905260240161048a565b6105f88383836001610ddc565b6009546001600160a01b031633146107005760405163118cdaa760e01b815233600482015260240161048a565b5f828152600260205260408120546001600160a01b0316801580159061090f57506001600160a01b03851615155b15610983575f848152600b602052604090205460ff16156109835760405162461bcd60e51b815260206004820152602860248201527f5469636b6574206973206c6f636b656420666f72206d61726b6574706c616365604482015267206c697374696e6760c01b606482015260840161048a565b61098e858585610ee0565b95945050505050565b5f6109a35f835f6108e1565b90506001600160a01b03811661042757604051637e27328960e01b81526004810183905260240161048a565b610427828260405180602001604052805f815250610fd2565b5f8281526006602052604090206109ff828261181c565b506040518281527ff8e1a15aba9398e019f0b49df1a4fde98ee17ae345cb5f6b5e2c27f5033e8ce79060200160405180910390a15050565b6127106001600160601b038216811015610a7d5760405163dfd1fc1b60e01b8152600481018590526001600160601b03831660248201526044810182905260640161048a565b6001600160a01b038316610aad57604051634b4f842960e11b8152600481018590525f602482015260440161048a565b506040805180820182526001600160a01b0393841681526001600160601b0392831660208083019182525f968752600890529190942093519051909116600160a01b029116179055565b600980546001600160a01b038381166001600160a01b0319831681179093556040519116919082907f8be0079c531659141344cd1fd0a4f28419497f9722a3daafe3b4186f6b6457e0905f90a35050565b6001600160a01b038316610b715760405163a9fbf51f60e01b81525f600482015260240161048a565b6001600160a01b038216610ba357604051630b61174360e31b81526001600160a01b038316600482015260240161048a565b6001600160a01b038381165f81815260056020908152604080832094871680845294825291829020805460ff191686151590811790915591519182527f17307eab39ab6107e8899845ad3d59bd9653f200f220920489ca2b5937696c31910160405180910390a3505050565b6001600160a01b0383163b15610d3057604051630a85bd0160e11b81526001600160a01b0384169063150b7a0290610c519088908890879087906004016118d8565b6020604051808303815f875af1925050508015610c8b575060408051601f3d908101601f19168201909252610c8891810190611914565b60015b610cf2573d808015610cb8576040519150601f19603f3d011682016040523d82523d5f602084013e610cbd565b606091505b5080515f03610cea57604051633250574960e11b81526001600160a01b038516600482015260240161048a565b805160208201fd5b6001600160e01b03198116630a85bd0160e11b14610d2e57604051633250574960e11b81526001600160a01b038516600482015260240161048a565b505b5050505050565b6060610d428261086f565b505f610d5860408051602081019091525f815290565b90505f610d6484610fe9565b905081515f03610d75579392505050565b805115610da7578181604051602001610d8f92919061192f565b60405160208183030381529060405292505050919050565b610db084611088565b949350505050565b5f6001600160e01b03198216632483248360e11b14806103605750610360826110f9565b8080610df057506001600160a01b03821615155b15610eb1575f610dff8461086f565b90506001600160a01b03831615801590610e2b5750826001600160a01b0316816001600160a01b031614155b8015610e3e5750610e3c81846107e4565b155b15610e675760405163a9fbf51f60e01b81526001600160a01b038416600482015260240161048a565b8115610eaf5783856001600160a01b0316826001600160a01b03167f8c5be1e5ebec7d5bd14f71427d1e84f3dd0314c0f7b2291e5b200ac8c7c3b92560405160405180910390a45b505b50505f90815260046020526040902080546001600160a01b0319166001600160a01b0392909216919091179055565b5f828152600260205260408120546001600160a01b0390811690831615610f0c57610f0c818486611148565b6001600160a01b03811615610f4657610f275f855f80610ddc565b6001600160a01b0381165f90815260036020526040902080545f190190555b6001600160a01b03851615610f74576001600160a01b0385165f908152600360205260409020805460010190555b5f8481526002602052604080822080546001600160a01b0319166001600160a01b0389811691821790925591518793918516917fddf252ad1be2c89b69c2b068fc378daa952ba7f163c4a11628f55a4df523b3ef91a4949350505050565b610fdc83836111ac565b6105f8335f858585610c0f565b5f8181526006602052604090208054606091906110059061173e565b80601f01602080910402602001604051908101604052809291908181526020018280546110319061173e565b801561107c5780601f106110535761010080835404028352916020019161107c565b820191905f5260205f20905b81548152906001019060200180831161105f57829003601f168201915b50505050509050919050565b60606110938261086f565b505f6110a960408051602081019091525f815290565b90505f8151116110c75760405180602001604052805f8152506110f2565b806110d18461120d565b6040516020016110e292919061192f565b6040516020818303038152906040525b9392505050565b5f6001600160e01b031982166380ac58cd60e01b148061112957506001600160e01b03198216635b5e139f60e01b145b8061036057506301ffc9a760e01b6001600160e01b0319831614610360565b61115383838361129d565b6105f8576001600160a01b03831661118157604051637e27328960e01b81526004810182905260240161048a565b60405163177e802f60e01b81526001600160a01b03831660048201526024810182905260440161048a565b6001600160a01b0382166111d557604051633250574960e11b81525f600482015260240161048a565b5f6111e183835f6108e1565b90506001600160a01b038116156105f8576040516339e3563760e11b81525f600482015260240161048a565b60605f611219836112fe565b60010190505f8167ffffffffffffffff81111561123857611238611517565b6040519080825280601f01601f191660200182016040528015611262576020820181803683370190505b5090508181016020015b5f19016f181899199a1a9b1b9c1cb0b131b232b360811b600a86061a8153600a850494508461126c57509392505050565b5f6001600160a01b03831615801590610db05750826001600160a01b0316846001600160a01b031614806112d657506112d684846107e4565b80610db05750505f908152600460205260409020546001600160a01b03908116911614919050565b5f8072184f03e93ff9f4daa797ed6e38ed64bf6a1f0160401b831061133c5772184f03e93ff9f4daa797ed6e38ed64bf6a1f0160401b830492506040015b6d04ee2d6d415b85acef81000000008310611368576d04ee2d6d415b85acef8100000000830492506020015b662386f26fc10000831061138657662386f26fc10000830492506010015b6305f5e100831061139e576305f5e100830492506008015b61271083106113b257612710830492506004015b606483106113c4576064830492506002015b600a83106103605760010192915050565b6001600160e01b03198116811461060e575f80fd5b5f602082840312156113fa575f80fd5b81356110f2816113d5565b5f5b8381101561141f578181015183820152602001611407565b50505f910152565b5f815180845261143e816020860160208601611405565b601f01601f19169290920160200192915050565b602081525f6110f26020830184611427565b5f60208284031215611474575f80fd5b5035919050565b80356001600160a01b0381168114611491575f80fd5b919050565b5f80604083850312156114a7575f80fd5b6114b08361147b565b946020939093013593505050565b5f805f606084860312156114d0575f80fd5b6114d98461147b565b92506114e76020850161147b565b9150604084013590509250925092565b5f8060408385031215611508575f80fd5b50508035926020909101359150565b634e487b7160e01b5f52604160045260245ffd5b5f67ffffffffffffffff8084111561154557611545611517565b604051601f8501601f19908116603f0116810190828211818310171561156d5761156d611517565b81604052809350858152868686011115611585575f80fd5b858560208301375f602087830101525050509392505050565b5f80604083850312156115af575f80fd5b6115b88361147b565b9150602083013567ffffffffffffffff8111156115d3575f80fd5b8301601f810185136115e3575f80fd5b6115f28582356020840161152b565b9150509250929050565b5f805f6060848603121561160e575f80fd5b8335925061161e6020850161147b565b915060408401356001600160601b0381168114611639575f80fd5b809150509250925092565b5f60208284031215611654575f80fd5b6110f28261147b565b5f806040838503121561166e575f80fd5b6116778361147b565b91506020830135801515811461168b575f80fd5b809150509250929050565b5f805f80608085870312156116a9575f80fd5b6116b28561147b565b93506116c06020860161147b565b925060408501359150606085013567ffffffffffffffff8111156116e2575f80fd5b8501601f810187136116f2575f80fd5b6117018782356020840161152b565b91505092959194509250565b5f806040838503121561171e575f80fd5b6117278361147b565b91506117356020840161147b565b90509250929050565b600181811c9082168061175257607f821691505b60208210810361177057634e487b7160e01b5f52602260045260245ffd5b50919050565b634e487b7160e01b5f52601160045260245ffd5b808202811582820484141761036057610360611776565b5f826117bb57634e487b7160e01b5f52601260045260245ffd5b500490565b5f600182016117d1576117d1611776565b5060010190565b601f8211156105f857805f5260205f20601f840160051c810160208510156117fd5750805b601f840160051c820191505b81811015610d30575f8155600101611809565b815167ffffffffffffffff81111561183657611836611517565b61184a81611844845461173e565b846117d8565b602080601f83116001811461187d575f84156118665750858301515b5f19600386901b1c1916600185901b178555610d2e565b5f85815260208120601f198616915b828110156118ab5788860151825594840194600190910190840161188c565b50858210156118c857878501515f19600388901b60f8161c191681555b5050505050600190811b01905550565b6001600160a01b03858116825284166020820152604081018390526080606082018190525f9061190a90830184611427565b9695505050505050565b5f60208284031215611924575f80fd5b81516110f2816113d5565b5f8351611940818460208801611405565b835190830190611954818360208801611405565b0194935050505056fea2646970667358221220e094c68f51ba5036763656da3003991d8d11d25ea2442362ee1182c52772c32a64736f6c63430008180033","opcodes":"PUSH1 0x80 PUSH1 0x40 MSTORE CALLVALUE DUP1 ISZERO PUSH3 0x10 JUMPI PUSH0 DUP1 REVERT JUMPDEST POP PUSH1 0x40 MLOAD PUSH3 0x1D17 CODESIZE SUB DUP1 PUSH3 0x1D17 DUP4 CODECOPY DUP2 ADD PUSH1 0x40 DUP2 SWAP1 MSTORE PUSH3 0x33 SWAP2 PUSH3 0x1DD JUMP JUMPDEST DUP1 PUSH1 0x40 MLOAD DUP1 PUSH1 0x40 ADD PUSH1 0x40 MSTORE DUP1 PUSH1 0xA DUP2 MSTORE PUSH1 0x20 ADD PUSH10 0x109054C8151A58DAD95D PUSH1 0xB2 SHL DUP2 MSTORE POP PUSH1 0x40 MLOAD DUP1 PUSH1 0x40 ADD PUSH1 0x40 MSTORE DUP1 PUSH1 0x4 DUP2 MSTORE PUSH1 0x20 ADD PUSH4 0x109054D5 PUSH1 0xE2 SHL DUP2 MSTORE POP DUP2 PUSH0 SWAP1 DUP2 PUSH3 0x84 SWAP2 SWAP1 PUSH3 0x2AA JUMP JUMPDEST POP PUSH1 0x1 PUSH3 0x93 DUP3 DUP3 PUSH3 0x2AA JUMP JUMPDEST POP POP POP PUSH1 0x1 PUSH1 0x1 PUSH1 0xA0 SHL SUB DUP2 AND PUSH3 0xC5 JUMPI PUSH1 0x40 MLOAD PUSH4 0x1E4FBDF7 PUSH1 0xE0 SHL DUP2 MSTORE PUSH0 PUSH1 0x4 DUP3 ADD MSTORE PUSH1 0x24 ADD JUMPDEST PUSH1 0x40 MLOAD DUP1 SWAP2 SUB SWAP1 REVERT JUMPDEST PUSH3 0xD0 DUP2 PUSH3 0xE6 JUMP JUMPDEST POP PUSH3 0xDF DUP2 PUSH2 0x1F4 PUSH3 0x137 JUMP JUMPDEST POP PUSH3 0x376 JUMP JUMPDEST PUSH1 0x9 DUP1 SLOAD PUSH1 0x1 PUSH1 0x1 PUSH1 0xA0 SHL SUB DUP4 DUP2 AND PUSH1 0x1 PUSH1 0x1 PUSH1 0xA0 SHL SUB NOT DUP4 AND DUP2 OR SWAP1 SWAP4 SSTORE PUSH1 0x40 MLOAD SWAP2 AND SWAP2 SWAP1 DUP3 SWAP1 PUSH32 0x8BE0079C531659141344CD1FD0A4F28419497F9722A3DAAFE3B4186F6B6457E0 SWAP1 PUSH0 SWAP1 LOG3 POP POP JUMP JUMPDEST PUSH2 0x2710 PUSH1 0x1 PUSH1 0x1 PUSH1 0x60 SHL SUB DUP3 AND DUP2 LT ISZERO PUSH3 0x178 JUMPI PUSH1 0x40 MLOAD PUSH4 0x6F483D09 PUSH1 0xE0 SHL DUP2 MSTORE PUSH1 0x1 PUSH1 0x1 PUSH1 0x60 SHL SUB DUP4 AND PUSH1 0x4 DUP3 ADD MSTORE PUSH1 0x24 DUP2 ADD DUP3 SWAP1 MSTORE PUSH1 0x44 ADD PUSH3 0xBC JUMP JUMPDEST PUSH1 0x1 PUSH1 0x1 PUSH1 0xA0 SHL SUB DUP4 AND PUSH3 0x1A3 JUMPI PUSH1 0x40 MLOAD PUSH4 0x5B6CC805 PUSH1 0xE1 SHL DUP2 MSTORE PUSH0 PUSH1 0x4 DUP3 ADD MSTORE PUSH1 0x24 ADD PUSH3 0xBC JUMP JUMPDEST POP PUSH1 0x40 DUP1 MLOAD DUP1 DUP3 ADD SWAP1 SWAP2 MSTORE PUSH1 0x1 PUSH1 0x1 PUSH1 0xA0 SHL SUB SWAP1 SWAP3 AND DUP1 DUP4 MSTORE PUSH1 0x1 PUSH1 0x1 PUSH1 0x60 SHL SUB SWAP1 SWAP2 AND PUSH1 0x20 SWAP1 SWAP3 ADD DUP3 SWAP1 MSTORE PUSH1 0x1 PUSH1 0xA0 SHL SWAP1 SWAP2 MUL OR PUSH1 0x7 SSTORE JUMP JUMPDEST PUSH0 PUSH1 0x20 DUP3 DUP5 SUB SLT ISZERO PUSH3 0x1EE JUMPI PUSH0 DUP1 REVERT JUMPDEST DUP2 MLOAD PUSH1 0x1 PUSH1 0x1 PUSH1 0xA0 SHL SUB DUP2 AND DUP2 EQ PUSH3 0x205 JUMPI PUSH0 DUP1 REVERT JUMPDEST SWAP4 SWAP3 POP POP POP JUMP JUMPDEST PUSH4 0x4E487B71 PUSH1 0xE0 SHL PUSH0 MSTORE PUSH1 0x41 PUSH1 0x4 MSTORE PUSH1 0x24 PUSH0 REVERT JUMPDEST PUSH1 0x1 DUP2 DUP2 SHR SWAP1 DUP3 AND DUP1 PUSH3 0x235 JUMPI PUSH1 0x7F DUP3 AND SWAP2 POP JUMPDEST PUSH1 0x20 DUP3 LT DUP2 SUB PUSH3 0x254 JUMPI PUSH4 0x4E487B71 PUSH1 0xE0 SHL PUSH0 MSTORE PUSH1 0x22 PUSH1 0x4 MSTORE PUSH1 0x24 PUSH0 REVERT JUMPDEST POP SWAP2 SWAP1 POP JUMP JUMPDEST PUSH1 0x1F DUP3 GT ISZERO PUSH3 0x2A5 JUMPI DUP1 PUSH0 MSTORE PUSH1 0x20 PUSH0 KECCAK256 PUSH1 0x1F DUP5 ADD PUSH1 0x5 SHR DUP2 ADD PUSH1 0x20 DUP6 LT ISZERO PUSH3 0x281 JUMPI POP DUP1 JUMPDEST PUSH1 0x1F DUP5 ADD PUSH1 0x5 SHR DUP3 ADD SWAP2 POP JUMPDEST DUP2 DUP2 LT ISZERO PUSH3 0x2A2 JUMPI PUSH0 DUP2 SSTORE PUSH1 0x1 ADD PUSH3 0x28D JUMP JUMPDEST POP POP JUMPDEST POP POP POP JUMP JUMPDEST DUP2 MLOAD PUSH1 0x1 PUSH1 0x1 PUSH1 0x40 SHL SUB DUP2 GT ISZERO PUSH3 0x2C6 JUMPI PUSH3 0x2C6 PUSH3 0x20C JUMP JUMPDEST PUSH3 0x2DE DUP2 PUSH3 0x2D7 DUP5 SLOAD PUSH3 0x220 JUMP JUMPDEST DUP5 PUSH3 0x25A JUMP JUMPDEST PUSH1 0x20 DUP1 PUSH1 0x1F DUP4 GT PUSH1 0x1 DUP2 EQ PUSH3 0x314 JUMPI PUSH0 DUP5 ISZERO PUSH3 0x2FC JUMPI POP DUP6 DUP4 ADD MLOAD JUMPDEST PUSH0 NOT PUSH1 0x3 DUP7 SWAP1 SHL SHR NOT AND PUSH1 0x1 DUP6 SWAP1 SHL OR DUP6 SSTORE PUSH3 0x36E JUMP JUMPDEST PUSH0 DUP6 DUP2 MSTORE PUSH1 0x20 DUP2 KECCAK256 PUSH1 0x1F NOT DUP7 AND SWAP2 JUMPDEST DUP3 DUP2 LT ISZERO PUSH3 0x344 JUMPI DUP9 DUP7 ADD MLOAD DUP3 SSTORE SWAP5 DUP5 ADD SWAP5 PUSH1 0x1 SWAP1 SWAP2 ADD SWAP1 DUP5 ADD PUSH3 0x323 JUMP JUMPDEST POP DUP6 DUP3 LT ISZERO PUSH3 0x362 JUMPI DUP8 DUP6 ADD MLOAD PUSH0 NOT PUSH1 0x3 DUP9 SWAP1 SHL PUSH1 0xF8 AND SHR NOT AND DUP2 SSTORE JUMPDEST POP POP PUSH1 0x1 DUP5 PUSH1 0x1 SHL ADD DUP6 SSTORE JUMPDEST POP POP POP POP POP POP JUMP JUMPDEST PUSH2 0x1993 DUP1 PUSH3 0x384 PUSH0 CODECOPY PUSH0 RETURN INVALID PUSH1 0x80 PUSH1 0x40 MSTORE CALLVALUE DUP1 ISZERO PUSH2 0xF JUMPI PUSH0 DUP1 REVERT JUMPDEST POP PUSH1 0x4 CALLDATASIZE LT PUSH2 0x148 JUMPI PUSH0 CALLDATALOAD PUSH1 0xE0 SHR DUP1 PUSH4 0x6352211E GT PUSH2 0xBF JUMPI DUP1 PUSH4 0xA22CB465 GT PUSH2 0x79 JUMPI DUP1 PUSH4 0xA22CB465 EQ PUSH2 0x2D5 JUMPI DUP1 PUSH4 0xB88D4FDE EQ PUSH2 0x2E8 JUMPI DUP1 PUSH4 0xC87B56DD EQ PUSH2 0x2FB JUMPI DUP1 PUSH4 0xE985E9C5 EQ PUSH2 0x30E JUMPI DUP1 PUSH4 0xF2FDE38B EQ PUSH2 0x321 JUMPI DUP1 PUSH4 0xF6AACFB1 EQ PUSH2 0x334 JUMPI PUSH0 DUP1 REVERT JUMPDEST DUP1 PUSH4 0x6352211E EQ PUSH2 0x27B JUMPI DUP1 PUSH4 0x70A08231 EQ PUSH2 0x28E JUMPI DUP1 PUSH4 0x715018A6 EQ PUSH2 0x2A1 JUMPI DUP1 PUSH4 0x71E20902 EQ PUSH2 0x2A9 JUMPI DUP1 PUSH4 0x8DA5CB5B EQ PUSH2 0x2BC JUMPI DUP1 PUSH4 0x95D89B41 EQ PUSH2 0x2CD JUMPI PUSH0 DUP1 REVERT JUMPDEST DUP1 PUSH4 0x23B872DD GT PUSH2 0x110 JUMPI DUP1 PUSH4 0x23B872DD EQ PUSH2 0x1DC JUMPI DUP1 PUSH4 0x2A55205A EQ PUSH2 0x1EF JUMPI DUP1 PUSH4 0x42842E0E EQ PUSH2 0x221 JUMPI DUP1 PUSH4 0x42966C68 EQ PUSH2 0x234 JUMPI DUP1 PUSH4 0x5388842C EQ PUSH2 0x247 JUMPI DUP1 PUSH4 0x5944C753 EQ PUSH2 0x268 JUMPI PUSH0 DUP1 REVERT JUMPDEST DUP1 PUSH4 0x1FFC9A7 EQ PUSH2 0x14C JUMPI DUP1 PUSH4 0x6FDDE03 EQ PUSH2 0x174 JUMPI DUP1 PUSH4 0x81812FC EQ PUSH2 0x189 JUMPI DUP1 PUSH4 0x95EA7B3 EQ PUSH2 0x1B4 JUMPI DUP1 PUSH4 0x10BCBEC7 EQ PUSH2 0x1C9 JUMPI JUMPDEST PUSH0 DUP1 REVERT JUMPDEST PUSH2 0x15F PUSH2 0x15A CALLDATASIZE PUSH1 0x4 PUSH2 0x13EA JUMP JUMPDEST PUSH2 0x356 JUMP JUMPDEST PUSH1 0x40 MLOAD SWAP1 ISZERO ISZERO DUP2 MSTORE PUSH1 0x20 ADD JUMPDEST PUSH1 0x40 MLOAD DUP1 SWAP2 SUB SWAP1 RETURN JUMPDEST PUSH2 0x17C PUSH2 0x366 JUMP JUMPDEST PUSH1 0x40 MLOAD PUSH2 0x16B SWAP2 SWAP1 PUSH2 0x1452 JUMP JUMPDEST PUSH2 0x19C PUSH2 0x197 CALLDATASIZE PUSH1 0x4 PUSH2 0x1464 JUMP JUMPDEST PUSH2 0x3F5 JUMP JUMPDEST PUSH1 0x40 MLOAD PUSH1 0x1 PUSH1 0x1 PUSH1 0xA0 SHL SUB SWAP1 SWAP2 AND DUP2 MSTORE PUSH1 0x20 ADD PUSH2 0x16B JUMP JUMPDEST PUSH2 0x1C7 PUSH2 0x1C2 CALLDATASIZE PUSH1 0x4 PUSH2 0x1496 JUMP JUMPDEST PUSH2 0x41C JUMP JUMPDEST STOP JUMPDEST PUSH2 0x1C7 PUSH2 0x1D7 CALLDATASIZE PUSH1 0x4 PUSH2 0x1464 JUMP JUMPDEST PUSH2 0x42B JUMP JUMPDEST PUSH2 0x1C7 PUSH2 0x1EA CALLDATASIZE PUSH1 0x4 PUSH2 0x14BE JUMP JUMPDEST PUSH2 0x4D2 JUMP JUMPDEST PUSH2 0x202 PUSH2 0x1FD CALLDATASIZE PUSH1 0x4 PUSH2 0x14F7 JUMP JUMPDEST PUSH2 0x55B JUMP JUMPDEST PUSH1 0x40 DUP1 MLOAD PUSH1 0x1 PUSH1 0x1 PUSH1 0xA0 SHL SUB SWAP1 SWAP4 AND DUP4 MSTORE PUSH1 0x20 DUP4 ADD SWAP2 SWAP1 SWAP2 MSTORE ADD PUSH2 0x16B JUMP JUMPDEST PUSH2 0x1C7 PUSH2 0x22F CALLDATASIZE PUSH1 0x4 PUSH2 0x14BE JUMP JUMPDEST PUSH2 0x5DE JUMP JUMPDEST PUSH2 0x1C7 PUSH2 0x242 CALLDATASIZE PUSH1 0x4 PUSH2 0x1464 JUMP JUMPDEST PUSH2 0x5FD JUMP JUMPDEST PUSH2 0x25A PUSH2 0x255 CALLDATASIZE PUSH1 0x4 PUSH2 0x159E JUMP JUMPDEST PUSH2 0x611 JUMP JUMPDEST PUSH1 0x40 MLOAD SWAP1 DUP2 MSTORE PUSH1 0x20 ADD PUSH2 0x16B JUMP JUMPDEST PUSH2 0x1C7 PUSH2 0x276 CALLDATASIZE PUSH1 0x4 PUSH2 0x15FC JUMP JUMPDEST PUSH2 0x68D JUMP JUMPDEST PUSH2 0x19C PUSH2 0x289 CALLDATASIZE PUSH1 0x4 PUSH2 0x1464 JUMP JUMPDEST PUSH2 0x6A0 JUMP JUMPDEST PUSH2 0x25A PUSH2 0x29C CALLDATASIZE PUSH1 0x4 PUSH2 0x1644 JUMP JUMPDEST PUSH2 0x6AA JUMP JUMPDEST PUSH2 0x1C7 PUSH2 0x6EF JUMP JUMPDEST PUSH2 0x1C7 PUSH2 0x2B7 CALLDATASIZE PUSH1 0x4 PUSH2 0x1464 JUMP JUMPDEST PUSH2 0x702 JUMP JUMPDEST PUSH1 0x9 SLOAD PUSH1 0x1 PUSH1 0x1 PUSH1 0xA0 SHL SUB AND PUSH2 0x19C JUMP JUMPDEST PUSH2 0x17C PUSH2 0x7A7 JUMP JUMPDEST PUSH2 0x1C7 PUSH2 0x2E3 CALLDATASIZE PUSH1 0x4 PUSH2 0x165D JUMP JUMPDEST PUSH2 0x7B6 JUMP JUMPDEST PUSH2 0x1C7 PUSH2 0x2F6 CALLDATASIZE PUSH1 0x4 PUSH2 0x1696 JUMP JUMPDEST PUSH2 0x7C1 JUMP JUMPDEST PUSH2 0x17C PUSH2 0x309 CALLDATASIZE PUSH1 0x4 PUSH2 0x1464 JUMP JUMPDEST PUSH2 0x7D9 JUMP JUMPDEST PUSH2 0x15F PUSH2 0x31C CALLDATASIZE PUSH1 0x4 PUSH2 0x170D JUMP JUMPDEST PUSH2 0x7E4 JUMP JUMPDEST PUSH2 0x1C7 PUSH2 0x32F CALLDATASIZE PUSH1 0x4 PUSH2 0x1644 JUMP JUMPDEST PUSH2 0x811 JUMP JUMPDEST PUSH2 0x15F PUSH2 0x342 CALLDATASIZE PUSH1 0x4 PUSH2 0x1464 JUMP JUMPDEST PUSH1 0xB PUSH1 0x20 MSTORE PUSH0 SWAP1 DUP2 MSTORE PUSH1 0x40 SWAP1 KECCAK256 SLOAD PUSH1 0xFF AND DUP2 JUMP JUMPDEST PUSH0 PUSH2 0x360 DUP3 PUSH2 0x84B JUMP JUMPDEST SWAP3 SWAP2 POP POP JUMP JUMPDEST PUSH1 0x60 PUSH0 DUP1 SLOAD PUSH2 0x374 SWAP1 PUSH2 0x173E JUMP JUMPDEST DUP1 PUSH1 0x1F ADD PUSH1 0x20 DUP1 SWAP2 DIV MUL PUSH1 0x20 ADD PUSH1 0x40 MLOAD SWAP1 DUP2 ADD PUSH1 0x40 MSTORE DUP1 SWAP3 SWAP2 SWAP1 DUP2 DUP2 MSTORE PUSH1 0x20 ADD DUP3 DUP1 SLOAD PUSH2 0x3A0 SWAP1 PUSH2 0x173E JUMP JUMPDEST DUP1 ISZERO PUSH2 0x3EB JUMPI DUP1 PUSH1 0x1F LT PUSH2 0x3C2 JUMPI PUSH2 0x100 DUP1 DUP4 SLOAD DIV MUL DUP4 MSTORE SWAP2 PUSH1 0x20 ADD SWAP2 PUSH2 0x3EB JUMP JUMPDEST DUP3 ADD SWAP2 SWAP1 PUSH0 MSTORE PUSH1 0x20 PUSH0 KECCAK256 SWAP1 JUMPDEST DUP2 SLOAD DUP2 MSTORE SWAP1 PUSH1 0x1 ADD SWAP1 PUSH1 0x20 ADD DUP1 DUP4 GT PUSH2 0x3CE JUMPI DUP3 SWAP1 SUB PUSH1 0x1F AND DUP3 ADD SWAP2 JUMPDEST POP POP POP POP POP SWAP1 POP SWAP1 JUMP JUMPDEST PUSH0 PUSH2 0x3FF DUP3 PUSH2 0x86F JUMP JUMPDEST POP PUSH0 DUP3 DUP2 MSTORE PUSH1 0x4 PUSH1 0x20 MSTORE PUSH1 0x40 SWAP1 KECCAK256 SLOAD PUSH1 0x1 PUSH1 0x1 PUSH1 0xA0 SHL SUB AND PUSH2 0x360 JUMP JUMPDEST PUSH2 0x427 DUP3 DUP3 CALLER PUSH2 0x8A7 JUMP JUMPDEST POP POP JUMP JUMPDEST PUSH2 0x433 PUSH2 0x8B4 JUMP JUMPDEST PUSH0 DUP2 DUP2 MSTORE PUSH1 0x2 PUSH1 0x20 MSTORE PUSH1 0x40 SWAP1 KECCAK256 SLOAD PUSH1 0x1 PUSH1 0x1 PUSH1 0xA0 SHL SUB AND PUSH2 0x493 JUMPI PUSH1 0x40 MLOAD PUSH3 0x461BCD PUSH1 0xE5 SHL DUP2 MSTORE PUSH1 0x20 PUSH1 0x4 DUP3 ADD MSTORE PUSH1 0x15 PUSH1 0x24 DUP3 ADD MSTORE PUSH21 0x151A58DAD95D08191BD95CC81B9BDD08195E1A5CDD PUSH1 0x5A SHL PUSH1 0x44 DUP3 ADD MSTORE PUSH1 0x64 ADD JUMPDEST PUSH1 0x40 MLOAD DUP1 SWAP2 SUB SWAP1 REVERT JUMPDEST PUSH0 DUP2 DUP2 MSTORE PUSH1 0xB PUSH1 0x20 MSTORE PUSH1 0x40 DUP1 DUP3 KECCAK256 DUP1 SLOAD PUSH1 0xFF NOT AND SWAP1 SSTORE MLOAD DUP3 SWAP2 PUSH32 0x2C0C680AE904E095D6FC75BB8DC3619DE3A3A52D161DF3CC92CBCE36225F489E SWAP2 LOG2 POP JUMP JUMPDEST PUSH1 0x1 PUSH1 0x1 PUSH1 0xA0 SHL SUB DUP3 AND PUSH2 0x4FB JUMPI PUSH1 0x40 MLOAD PUSH4 0x32505749 PUSH1 0xE1 SHL DUP2 MSTORE PUSH0 PUSH1 0x4 DUP3 ADD MSTORE PUSH1 0x24 ADD PUSH2 0x48A JUMP JUMPDEST PUSH0 PUSH2 0x507 DUP4 DUP4 CALLER PUSH2 0x8E1 JUMP JUMPDEST SWAP1 POP DUP4 PUSH1 0x1 PUSH1 0x1 PUSH1 0xA0 SHL SUB AND DUP2 PUSH1 0x1 PUSH1 0x1 PUSH1 0xA0 SHL SUB AND EQ PUSH2 0x555 JUMPI PUSH1 0x40 MLOAD PUSH4 0x64283D7B PUSH1 0xE0 SHL DUP2 MSTORE PUSH1 0x1 PUSH1 0x1 PUSH1 0xA0 SHL SUB DUP1 DUP7 AND PUSH1 0x4 DUP4 ADD MSTORE PUSH1 0x24 DUP3 ADD DUP5 SWAP1 MSTORE DUP3 AND PUSH1 0x44 DUP3 ADD MSTORE PUSH1 0x64 ADD PUSH2 0x48A JUMP JUMPDEST POP POP POP POP JUMP JUMPDEST PUSH0 DUP3 DUP2 MSTORE PUSH1 0x8 PUSH1 0x20 MSTORE PUSH1 0x40 DUP2 KECCAK256 DUP1 SLOAD DUP3 SWAP2 SWAP1 PUSH1 0x1 PUSH1 0x1 PUSH1 0xA0 SHL SUB DUP2 AND SWAP1 PUSH1 0x1 PUSH1 0xA0 SHL SWAP1 DIV PUSH1 0x1 PUSH1 0x1 PUSH1 0x60 SHL SUB AND DUP2 PUSH2 0x5AE JUMPI POP POP PUSH1 0x7 SLOAD PUSH1 0x1 PUSH1 0x1 PUSH1 0xA0 SHL SUB DUP2 AND SWAP1 PUSH1 0x1 PUSH1 0xA0 SHL SWAP1 DIV PUSH1 0x1 PUSH1 0x1 PUSH1 0x60 SHL SUB AND JUMPDEST PUSH0 PUSH2 0x2710 PUSH2 0x5C5 PUSH1 0x1 PUSH1 0x1 PUSH1 0x60 SHL SUB DUP5 AND DUP10 PUSH2 0x178A JUMP JUMPDEST PUSH2 0x5CF SWAP2 SWAP1 PUSH2 0x17A1 JUMP JUMPDEST SWAP3 SWAP9 SWAP3 SWAP8 POP SWAP2 SWAP6 POP POP POP POP POP POP JUMP JUMPDEST PUSH2 0x5F8 DUP4 DUP4 DUP4 PUSH1 0x40 MLOAD DUP1 PUSH1 0x20 ADD PUSH1 0x40 MSTORE DUP1 PUSH0 DUP2 MSTORE POP PUSH2 0x7C1 JUMP JUMPDEST POP POP POP JUMP JUMPDEST PUSH2 0x605 PUSH2 0x8B4 JUMP JUMPDEST PUSH2 0x60E DUP2 PUSH2 0x997 JUMP JUMPDEST POP JUMP JUMPDEST PUSH0 PUSH2 0x61A PUSH2 0x8B4 JUMP JUMPDEST PUSH1 0xA DUP1 SLOAD PUSH0 SWAP2 DUP3 PUSH2 0x62A DUP4 PUSH2 0x17C0 JUMP JUMPDEST SWAP2 SWAP1 POP SSTORE SWAP1 POP PUSH2 0x63A DUP5 DUP3 PUSH2 0x9CF JUMP JUMPDEST PUSH2 0x644 DUP2 DUP5 PUSH2 0x9E8 JUMP JUMPDEST DUP1 DUP5 PUSH1 0x1 PUSH1 0x1 PUSH1 0xA0 SHL SUB AND PUSH32 0xF16F1E8B680EA7F1E8A1F849EB82762CBA60DDCEF854D36909E3173483281C8C DUP6 PUSH1 0x40 MLOAD PUSH2 0x67E SWAP2 SWAP1 PUSH2 0x1452 JUMP JUMPDEST PUSH1 0x40 MLOAD DUP1 SWAP2 SUB SWAP1 LOG3 SWAP4 SWAP3 POP POP POP JUMP JUMPDEST PUSH2 0x695 PUSH2 0x8B4 JUMP JUMPDEST PUSH2 0x5F8 DUP4 DUP4 DUP4 PUSH2 0xA37 JUMP JUMPDEST PUSH0 PUSH2 0x360 DUP3 PUSH2 0x86F JUMP JUMPDEST PUSH0 PUSH1 0x1 PUSH1 0x1 PUSH1 0xA0 SHL SUB DUP3 AND PUSH2 0x6D4 JUMPI PUSH1 0x40 MLOAD PUSH4 0x22718AD9 PUSH1 0xE2 SHL DUP2 MSTORE PUSH0 PUSH1 0x4 DUP3 ADD MSTORE PUSH1 0x24 ADD PUSH2 0x48A JUMP JUMPDEST POP PUSH1 0x1 PUSH1 0x1 PUSH1 0xA0 SHL SUB AND PUSH0 SWAP1 DUP2 MSTORE PUSH1 0x3 PUSH1 0x20 MSTORE PUSH1 0x40 SWAP1 KECCAK256 SLOAD SWAP1 JUMP JUMPDEST PUSH2 0x6F7 PUSH2 0x8B4 JUMP JUMPDEST PUSH2 0x700 PUSH0 PUSH2 0xAF7 JUMP JUMPDEST JUMP JUMPDEST PUSH2 0x70A PUSH2 0x8B4 JUMP JUMPDEST PUSH0 DUP2 DUP2 MSTORE PUSH1 0x2 PUSH1 0x20 MSTORE PUSH1 0x40 SWAP1 KECCAK256 SLOAD PUSH1 0x1 PUSH1 0x1 PUSH1 0xA0 SHL SUB AND PUSH2 0x765 JUMPI PUSH1 0x40 MLOAD PUSH3 0x461BCD PUSH1 0xE5 SHL DUP2 MSTORE PUSH1 0x20 PUSH1 0x4 DUP3 ADD MSTORE PUSH1 0x15 PUSH1 0x24 DUP3 ADD MSTORE PUSH21 0x151A58DAD95D08191BD95CC81B9BDD08195E1A5CDD PUSH1 0x5A SHL PUSH1 0x44 DUP3 ADD MSTORE PUSH1 0x64 ADD PUSH2 0x48A JUMP JUMPDEST PUSH0 DUP2 DUP2 MSTORE PUSH1 0xB PUSH1 0x20 MSTORE PUSH1 0x40 DUP1 DUP3 KECCAK256 DUP1 SLOAD PUSH1 0xFF NOT AND PUSH1 0x1 OR SWAP1 SSTORE MLOAD DUP3 SWAP2 PUSH32 0x34307A3F5FCA60843FDF0D44A7FE1DAA84960C21CE84E4D1ECAE51D9114CAC59 SWAP2 LOG2 POP JUMP JUMPDEST PUSH1 0x60 PUSH1 0x1 DUP1 SLOAD PUSH2 0x374 SWAP1 PUSH2 0x173E JUMP JUMPDEST PUSH2 0x427 CALLER DUP4 DUP4 PUSH2 0xB48 JUMP JUMPDEST PUSH2 0x7CC DUP5 DUP5 DUP5 PUSH2 0x4D2 JUMP JUMPDEST PUSH2 0x555 CALLER DUP6 DUP6 DUP6 DUP6 PUSH2 0xC0F JUMP JUMPDEST PUSH1 0x60 PUSH2 0x360 DUP3 PUSH2 0xD37 JUMP JUMPDEST PUSH1 0x1 PUSH1 0x1 PUSH1 0xA0 SHL SUB SWAP2 DUP3 AND PUSH0 SWAP1 DUP2 MSTORE PUSH1 0x5 PUSH1 0x20 SWAP1 DUP2 MSTORE PUSH1 0x40 DUP1 DUP4 KECCAK256 SWAP4 SWAP1 SWAP5 AND DUP3 MSTORE SWAP2 SWAP1 SWAP2 MSTORE KECCAK256 SLOAD PUSH1 0xFF AND SWAP1 JUMP JUMPDEST PUSH2 0x819 PUSH2 0x8B4 JUMP JUMPDEST PUSH1 0x1 PUSH1 0x1 PUSH1 0xA0 SHL SUB DUP2 AND PUSH2 0x842 JUMPI PUSH1 0x40 MLOAD PUSH4 0x1E4FBDF7 PUSH1 0xE0 SHL DUP2 MSTORE PUSH0 PUSH1 0x4 DUP3 ADD MSTORE PUSH1 0x24 ADD PUSH2 0x48A JUMP JUMPDEST PUSH2 0x60E DUP2 PUSH2 0xAF7 JUMP JUMPDEST PUSH0 PUSH1 0x1 PUSH1 0x1 PUSH1 0xE0 SHL SUB NOT DUP3 AND PUSH4 0x152A902D PUSH1 0xE1 SHL EQ DUP1 PUSH2 0x360 JUMPI POP PUSH2 0x360 DUP3 PUSH2 0xDB8 JUMP JUMPDEST PUSH0 DUP2 DUP2 MSTORE PUSH1 0x2 PUSH1 0x20 MSTORE PUSH1 0x40 DUP2 KECCAK256 SLOAD PUSH1 0x1 PUSH1 0x1 PUSH1 0xA0 SHL SUB AND DUP1 PUSH2 0x360 JUMPI PUSH1 0x40 MLOAD PUSH4 0x7E273289 PUSH1 0xE0 SHL DUP2 MSTORE PUSH1 0x4 DUP2 ADD DUP5 SWAP1 MSTORE PUSH1 0x24 ADD PUSH2 0x48A JUMP JUMPDEST PUSH2 0x5F8 DUP4 DUP4 DUP4 PUSH1 0x1 PUSH2 0xDDC JUMP JUMPDEST PUSH1 0x9 SLOAD PUSH1 0x1 PUSH1 0x1 PUSH1 0xA0 SHL SUB AND CALLER EQ PUSH2 0x700 JUMPI PUSH1 0x40 MLOAD PUSH4 0x118CDAA7 PUSH1 0xE0 SHL DUP2 MSTORE CALLER PUSH1 0x4 DUP3 ADD MSTORE PUSH1 0x24 ADD PUSH2 0x48A JUMP JUMPDEST PUSH0 DUP3 DUP2 MSTORE PUSH1 0x2 PUSH1 0x20 MSTORE PUSH1 0x40 DUP2 KECCAK256 SLOAD PUSH1 0x1 PUSH1 0x1 PUSH1 0xA0 SHL SUB AND DUP1 ISZERO DUP1 ISZERO SWAP1 PUSH2 0x90F JUMPI POP PUSH1 0x1 PUSH1 0x1 PUSH1 0xA0 SHL SUB DUP6 AND ISZERO ISZERO JUMPDEST ISZERO PUSH2 0x983 JUMPI PUSH0 DUP5 DUP2 MSTORE PUSH1 0xB PUSH1 0x20 MSTORE PUSH1 0x40 SWAP1 KECCAK256 SLOAD PUSH1 0xFF AND ISZERO PUSH2 0x983 JUMPI PUSH1 0x40 MLOAD PUSH3 0x461BCD PUSH1 0xE5 SHL DUP2 MSTORE PUSH1 0x20 PUSH1 0x4 DUP3 ADD MSTORE PUSH1 0x28 PUSH1 0x24 DUP3 ADD MSTORE PUSH32 0x5469636B6574206973206C6F636B656420666F72206D61726B6574706C616365 PUSH1 0x44 DUP3 ADD MSTORE PUSH8 0x206C697374696E67 PUSH1 0xC0 SHL PUSH1 0x64 DUP3 ADD MSTORE PUSH1 0x84 ADD PUSH2 0x48A JUMP JUMPDEST PUSH2 0x98E DUP6 DUP6 DUP6 PUSH2 0xEE0 JUMP JUMPDEST SWAP6 SWAP5 POP POP POP POP POP JUMP JUMPDEST PUSH0 PUSH2 0x9A3 PUSH0 DUP4 PUSH0 PUSH2 0x8E1 JUMP JUMPDEST SWAP1 POP PUSH1 0x1 PUSH1 0x1 PUSH1 0xA0 SHL SUB DUP2 AND PUSH2 0x427 JUMPI PUSH1 0x40 MLOAD PUSH4 0x7E273289 PUSH1 0xE0 SHL DUP2 MSTORE PUSH1 0x4 DUP2 ADD DUP4 SWAP1 MSTORE PUSH1 0x24 ADD PUSH2 0x48A JUMP JUMPDEST PUSH2 0x427 DUP3 DUP3 PUSH1 0x40 MLOAD DUP1 PUSH1 0x20 ADD PUSH1 0x40 MSTORE DUP1 PUSH0 DUP2 MSTORE POP PUSH2 0xFD2 JUMP JUMPDEST PUSH0 DUP3 DUP2 MSTORE PUSH1 0x6 PUSH1 0x20 MSTORE PUSH1 0x40 SWAP1 KECCAK256 PUSH2 0x9FF DUP3 DUP3 PUSH2 0x181C JUMP JUMPDEST POP PUSH1 0x40 MLOAD DUP3 DUP2 MSTORE PUSH32 0xF8E1A15ABA9398E019F0B49DF1A4FDE98EE17AE345CB5F6B5E2C27F5033E8CE7 SWAP1 PUSH1 0x20 ADD PUSH1 0x40 MLOAD DUP1 SWAP2 SUB SWAP1 LOG1 POP POP JUMP JUMPDEST PUSH2 0x2710 PUSH1 0x1 PUSH1 0x1 PUSH1 0x60 SHL SUB DUP3 AND DUP2 LT ISZERO PUSH2 0xA7D JUMPI PUSH1 0x40 MLOAD PUSH4 0xDFD1FC1B PUSH1 0xE0 SHL DUP2 MSTORE PUSH1 0x4 DUP2 ADD DUP6 SWAP1 MSTORE PUSH1 0x1 PUSH1 0x1 PUSH1 0x60 SHL SUB DUP4 AND PUSH1 0x24 DUP3 ADD MSTORE PUSH1 0x44 DUP2 ADD DUP3 SWAP1 MSTORE PUSH1 0x64 ADD PUSH2 0x48A JUMP JUMPDEST PUSH1 0x1 PUSH1 0x1 PUSH1 0xA0 SHL SUB DUP4 AND PUSH2 0xAAD JUMPI PUSH1 0x40 MLOAD PUSH4 0x4B4F8429 PUSH1 0xE1 SHL DUP2 MSTORE PUSH1 0x4 DUP2 ADD DUP6 SWAP1 MSTORE PUSH0 PUSH1 0x24 DUP3 ADD MSTORE PUSH1 0x44 ADD PUSH2 0x48A JUMP JUMPDEST POP PUSH1 0x40 DUP1 MLOAD DUP1 DUP3 ADD DUP3 MSTORE PUSH1 0x1 PUSH1 0x1 PUSH1 0xA0 SHL SUB SWAP4 DUP5 AND DUP2 MSTORE PUSH1 0x1 PUSH1 0x1 PUSH1 0x60 SHL SUB SWAP3 DUP4 AND PUSH1 0x20 DUP1 DUP4 ADD SWAP2 DUP3 MSTORE PUSH0 SWAP7 DUP8 MSTORE PUSH1 0x8 SWAP1 MSTORE SWAP2 SWAP1 SWAP5 KECCAK256 SWAP4 MLOAD SWAP1 MLOAD SWAP1 SWAP2 AND PUSH1 0x1 PUSH1 0xA0 SHL MUL SWAP2 AND OR SWAP1 SSTORE JUMP JUMPDEST PUSH1 0x9 DUP1 SLOAD PUSH1 0x1 PUSH1 0x1 PUSH1 0xA0 SHL SUB DUP4 DUP2 AND PUSH1 0x1 PUSH1 0x1 PUSH1 0xA0 SHL SUB NOT DUP4 AND DUP2 OR SWAP1 SWAP4 SSTORE PUSH1 0x40 MLOAD SWAP2 AND SWAP2 SWAP1 DUP3 SWAP1 PUSH32 0x8BE0079C531659141344CD1FD0A4F28419497F9722A3DAAFE3B4186F6B6457E0 SWAP1 PUSH0 SWAP1 LOG3 POP POP JUMP JUMPDEST PUSH1 0x1 PUSH1 0x1 PUSH1 0xA0 SHL SUB DUP4 AND PUSH2 0xB71 JUMPI PUSH1 0x40 MLOAD PUSH4 0xA9FBF51F PUSH1 0xE0 SHL DUP2 MSTORE PUSH0 PUSH1 0x4 DUP3 ADD MSTORE PUSH1 0x24 ADD PUSH2 0x48A JUMP JUMPDEST PUSH1 0x1 PUSH1 0x1 PUSH1 0xA0 SHL SUB DUP3 AND PUSH2 0xBA3 JUMPI PUSH1 0x40 MLOAD PUSH4 0xB611743 PUSH1 0xE3 SHL DUP2 MSTORE PUSH1 0x1 PUSH1 0x1 PUSH1 0xA0 SHL SUB DUP4 AND PUSH1 0x4 DUP3 ADD MSTORE PUSH1 0x24 ADD PUSH2 0x48A JUMP JUMPDEST PUSH1 0x1 PUSH1 0x1 PUSH1 0xA0 SHL SUB DUP4 DUP2 AND PUSH0 DUP2 DUP2 MSTORE PUSH1 0x5 PUSH1 0x20 SWAP1 DUP2 MSTORE PUSH1 0x40 DUP1 DUP4 KECCAK256 SWAP5 DUP8 AND DUP1 DUP5 MSTORE SWAP5 DUP3 MSTORE SWAP2 DUP3 SWAP1 KECCAK256 DUP1 SLOAD PUSH1 0xFF NOT AND DUP7 ISZERO ISZERO SWAP1 DUP2 OR SWAP1 SWAP2 SSTORE SWAP2 MLOAD SWAP2 DUP3 MSTORE PUSH32 0x17307EAB39AB6107E8899845AD3D59BD9653F200F220920489CA2B5937696C31 SWAP2 ADD PUSH1 0x40 MLOAD DUP1 SWAP2 SUB SWAP1 LOG3 POP POP POP JUMP JUMPDEST PUSH1 0x1 PUSH1 0x1 PUSH1 0xA0 SHL SUB DUP4 AND EXTCODESIZE ISZERO PUSH2 0xD30 JUMPI PUSH1 0x40 MLOAD PUSH4 0xA85BD01 PUSH1 0xE1 SHL DUP2 MSTORE PUSH1 0x1 PUSH1 0x1 PUSH1 0xA0 SHL SUB DUP5 AND SWAP1 PUSH4 0x150B7A02 SWAP1 PUSH2 0xC51 SWAP1 DUP9 SWAP1 DUP9 SWAP1 DUP8 SWAP1 DUP8 SWAP1 PUSH1 0x4 ADD PUSH2 0x18D8 JUMP JUMPDEST PUSH1 0x20 PUSH1 0x40 MLOAD DUP1 DUP4 SUB DUP2 PUSH0 DUP8 GAS CALL SWAP3 POP POP POP DUP1 ISZERO PUSH2 0xC8B JUMPI POP PUSH1 0x40 DUP1 MLOAD PUSH1 0x1F RETURNDATASIZE SWAP1 DUP2 ADD PUSH1 0x1F NOT AND DUP3 ADD SWAP1 SWAP3 MSTORE PUSH2 0xC88 SWAP2 DUP2 ADD SWAP1 PUSH2 0x1914 JUMP JUMPDEST PUSH1 0x1 JUMPDEST PUSH2 0xCF2 JUMPI RETURNDATASIZE DUP1 DUP1 ISZERO PUSH2 0xCB8 JUMPI PUSH1 0x40 MLOAD SWAP2 POP PUSH1 0x1F NOT PUSH1 0x3F RETURNDATASIZE ADD AND DUP3 ADD PUSH1 0x40 MSTORE RETURNDATASIZE DUP3 MSTORE RETURNDATASIZE PUSH0 PUSH1 0x20 DUP5 ADD RETURNDATACOPY PUSH2 0xCBD JUMP JUMPDEST PUSH1 0x60 SWAP2 POP JUMPDEST POP DUP1 MLOAD PUSH0 SUB PUSH2 0xCEA JUMPI PUSH1 0x40 MLOAD PUSH4 0x32505749 PUSH1 0xE1 SHL DUP2 MSTORE PUSH1 0x1 PUSH1 0x1 PUSH1 0xA0 SHL SUB DUP6 AND PUSH1 0x4 DUP3 ADD MSTORE PUSH1 0x24 ADD PUSH2 0x48A JUMP JUMPDEST DUP1 MLOAD PUSH1 0x20 DUP3 ADD REVERT JUMPDEST PUSH1 0x1 PUSH1 0x1 PUSH1 0xE0 SHL SUB NOT DUP2 AND PUSH4 0xA85BD01 PUSH1 0xE1 SHL EQ PUSH2 0xD2E JUMPI PUSH1 0x40 MLOAD PUSH4 0x32505749 PUSH1 0xE1 SHL DUP2 MSTORE PUSH1 0x1 PUSH1 0x1 PUSH1 0xA0 SHL SUB DUP6 AND PUSH1 0x4 DUP3 ADD MSTORE PUSH1 0x24 ADD PUSH2 0x48A JUMP JUMPDEST POP JUMPDEST POP POP POP POP POP JUMP JUMPDEST PUSH1 0x60 PUSH2 0xD42 DUP3 PUSH2 0x86F JUMP JUMPDEST POP PUSH0 PUSH2 0xD58 PUSH1 0x40 DUP1 MLOAD PUSH1 0x20 DUP2 ADD SWAP1 SWAP2 MSTORE PUSH0 DUP2 MSTORE SWAP1 JUMP JUMPDEST SWAP1 POP PUSH0 PUSH2 0xD64 DUP5 PUSH2 0xFE9 JUMP JUMPDEST SWAP1 POP DUP2 MLOAD PUSH0 SUB PUSH2 0xD75 JUMPI SWAP4 SWAP3 POP POP POP JUMP JUMPDEST DUP1 MLOAD ISZERO PUSH2 0xDA7 JUMPI DUP2 DUP2 PUSH1 0x40 MLOAD PUSH1 0x20 ADD PUSH2 0xD8F SWAP3 SWAP2 SWAP1 PUSH2 0x192F JUMP JUMPDEST PUSH1 0x40 MLOAD PUSH1 0x20 DUP2 DUP4 SUB SUB DUP2 MSTORE SWAP1 PUSH1 0x40 MSTORE SWAP3 POP POP POP SWAP2 SWAP1 POP JUMP JUMPDEST PUSH2 0xDB0 DUP5 PUSH2 0x1088 JUMP JUMPDEST SWAP5 SWAP4 POP POP POP POP JUMP JUMPDEST PUSH0 PUSH1 0x1 PUSH1 0x1 PUSH1 0xE0 SHL SUB NOT DUP3 AND PUSH4 0x24832483 PUSH1 0xE1 SHL EQ DUP1 PUSH2 0x360 JUMPI POP PUSH2 0x360 DUP3 PUSH2 0x10F9 JUMP JUMPDEST DUP1 DUP1 PUSH2 0xDF0 JUMPI POP PUSH1 0x1 PUSH1 0x1 PUSH1 0xA0 SHL SUB DUP3 AND ISZERO ISZERO JUMPDEST ISZERO PUSH2 0xEB1 JUMPI PUSH0 PUSH2 0xDFF DUP5 PUSH2 0x86F JUMP JUMPDEST SWAP1 POP PUSH1 0x1 PUSH1 0x1 PUSH1 0xA0 SHL SUB DUP4 AND ISZERO DUP1 ISZERO SWAP1 PUSH2 0xE2B JUMPI POP DUP3 PUSH1 0x1 PUSH1 0x1 PUSH1 0xA0 SHL SUB AND DUP2 PUSH1 0x1 PUSH1 0x1 PUSH1 0xA0 SHL SUB AND EQ ISZERO JUMPDEST DUP1 ISZERO PUSH2 0xE3E JUMPI POP PUSH2 0xE3C DUP2 DUP5 PUSH2 0x7E4 JUMP JUMPDEST ISZERO JUMPDEST ISZERO PUSH2 0xE67 JUMPI PUSH1 0x40 MLOAD PUSH4 0xA9FBF51F PUSH1 0xE0 SHL DUP2 MSTORE PUSH1 0x1 PUSH1 0x1 PUSH1 0xA0 SHL SUB DUP5 AND PUSH1 0x4 DUP3 ADD MSTORE PUSH1 0x24 ADD PUSH2 0x48A JUMP JUMPDEST DUP2 ISZERO PUSH2 0xEAF JUMPI DUP4 DUP6 PUSH1 0x1 PUSH1 0x1 PUSH1 0xA0 SHL SUB AND DUP3 PUSH1 0x1 PUSH1 0x1 PUSH1 0xA0 SHL SUB AND PUSH32 0x8C5BE1E5EBEC7D5BD14F71427D1E84F3DD0314C0F7B2291E5B200AC8C7C3B925 PUSH1 0x40 MLOAD PUSH1 0x40 MLOAD DUP1 SWAP2 SUB SWAP1 LOG4 JUMPDEST POP JUMPDEST POP POP PUSH0 SWAP1 DUP2 MSTORE PUSH1 0x4 PUSH1 0x20 MSTORE PUSH1 0x40 SWAP1 KECCAK256 DUP1 SLOAD PUSH1 0x1 PUSH1 0x1 PUSH1 0xA0 SHL SUB NOT AND PUSH1 0x1 PUSH1 0x1 PUSH1 0xA0 SHL SUB SWAP3 SWAP1 SWAP3 AND SWAP2 SWAP1 SWAP2 OR SWAP1 SSTORE JUMP JUMPDEST PUSH0 DUP3 DUP2 MSTORE PUSH1 0x2 PUSH1 0x20 MSTORE PUSH1 0x40 DUP2 KECCAK256 SLOAD PUSH1 0x1 PUSH1 0x1 PUSH1 0xA0 SHL SUB SWAP1 DUP2 AND SWAP1 DUP4 AND ISZERO PUSH2 0xF0C JUMPI PUSH2 0xF0C DUP2 DUP5 DUP7 PUSH2 0x1148 JUMP JUMPDEST PUSH1 0x1 PUSH1 0x1 PUSH1 0xA0 SHL SUB DUP2 AND ISZERO PUSH2 0xF46 JUMPI PUSH2 0xF27 PUSH0 DUP6 PUSH0 DUP1 PUSH2 0xDDC JUMP JUMPDEST PUSH1 0x1 PUSH1 0x1 PUSH1 0xA0 SHL SUB DUP2 AND PUSH0 SWAP1 DUP2 MSTORE PUSH1 0x3 PUSH1 0x20 MSTORE PUSH1 0x40 SWAP1 KECCAK256 DUP1 SLOAD PUSH0 NOT ADD SWAP1 SSTORE JUMPDEST PUSH1 0x1 PUSH1 0x1 PUSH1 0xA0 SHL SUB DUP6 AND ISZERO PUSH2 0xF74 JUMPI PUSH1 0x1 PUSH1 0x1 PUSH1 0xA0 SHL SUB DUP6 AND PUSH0 SWAP1 DUP2 MSTORE PUSH1 0x3 PUSH1 0x20 MSTORE PUSH1 0x40 SWAP1 KECCAK256 DUP1 SLOAD PUSH1 0x1 ADD SWAP1 SSTORE JUMPDEST PUSH0 DUP5 DUP2 MSTORE PUSH1 0x2 PUSH1 0x20 MSTORE PUSH1 0x40 DUP1 DUP3 KECCAK256 DUP1 SLOAD PUSH1 0x1 PUSH1 0x1 PUSH1 0xA0 SHL SUB NOT AND PUSH1 0x1 PUSH1 0x1 PUSH1 0xA0 SHL SUB DUP10 DUP2 AND SWAP2 DUP3 OR SWAP1 SWAP3 SSTORE SWAP2 MLOAD DUP8 SWAP4 SWAP2 DUP6 AND SWAP2 PUSH32 0xDDF252AD1BE2C89B69C2B068FC378DAA952BA7F163C4A11628F55A4DF523B3EF SWAP2 LOG4 SWAP5 SWAP4 POP POP POP POP JUMP JUMPDEST PUSH2 0xFDC DUP4 DUP4 PUSH2 0x11AC JUMP JUMPDEST PUSH2 0x5F8 CALLER PUSH0 DUP6 DUP6 DUP6 PUSH2 0xC0F JUMP JUMPDEST PUSH0 DUP2 DUP2 MSTORE PUSH1 0x6 PUSH1 0x20 MSTORE PUSH1 0x40 SWAP1 KECCAK256 DUP1 SLOAD PUSH1 0x60 SWAP2 SWAP1 PUSH2 0x1005 SWAP1 PUSH2 0x173E JUMP JUMPDEST DUP1 PUSH1 0x1F ADD PUSH1 0x20 DUP1 SWAP2 DIV MUL PUSH1 0x20 ADD PUSH1 0x40 MLOAD SWAP1 DUP2 ADD PUSH1 0x40 MSTORE DUP1 SWAP3 SWAP2 SWAP1 DUP2 DUP2 MSTORE PUSH1 0x20 ADD DUP3 DUP1 SLOAD PUSH2 0x1031 SWAP1 PUSH2 0x173E JUMP JUMPDEST DUP1 ISZERO PUSH2 0x107C JUMPI DUP1 PUSH1 0x1F LT PUSH2 0x1053 JUMPI PUSH2 0x100 DUP1 DUP4 SLOAD DIV MUL DUP4 MSTORE SWAP2 PUSH1 0x20 ADD SWAP2 PUSH2 0x107C JUMP JUMPDEST DUP3 ADD SWAP2 SWAP1 PUSH0 MSTORE PUSH1 0x20 PUSH0 KECCAK256 SWAP1 JUMPDEST DUP2 SLOAD DUP2 MSTORE SWAP1 PUSH1 0x1 ADD SWAP1 PUSH1 0x20 ADD DUP1 DUP4 GT PUSH2 0x105F JUMPI DUP3 SWAP1 SUB PUSH1 0x1F AND DUP3 ADD SWAP2 JUMPDEST POP POP POP POP POP SWAP1 POP SWAP2 SWAP1 POP JUMP JUMPDEST PUSH1 0x60 PUSH2 0x1093 DUP3 PUSH2 0x86F JUMP JUMPDEST POP PUSH0 PUSH2 0x10A9 PUSH1 0x40 DUP1 MLOAD PUSH1 0x20 DUP2 ADD SWAP1 SWAP2 MSTORE PUSH0 DUP2 MSTORE SWAP1 JUMP JUMPDEST SWAP1 POP PUSH0 DUP2 MLOAD GT PUSH2 0x10C7 JUMPI PUSH1 0x40 MLOAD DUP1 PUSH1 0x20 ADD PUSH1 0x40 MSTORE DUP1 PUSH0 DUP2 MSTORE POP PUSH2 0x10F2 JUMP JUMPDEST DUP1 PUSH2 0x10D1 DUP5 PUSH2 0x120D JUMP JUMPDEST PUSH1 0x40 MLOAD PUSH1 0x20 ADD PUSH2 0x10E2 SWAP3 SWAP2 SWAP1 PUSH2 0x192F JUMP JUMPDEST PUSH1 0x40 MLOAD PUSH1 0x20 DUP2 DUP4 SUB SUB DUP2 MSTORE SWAP1 PUSH1 0x40 MSTORE JUMPDEST SWAP4 SWAP3 POP POP POP JUMP JUMPDEST PUSH0 PUSH1 0x1 PUSH1 0x1 PUSH1 0xE0 SHL SUB NOT DUP3 AND PUSH4 0x80AC58CD PUSH1 0xE0 SHL EQ DUP1 PUSH2 0x1129 JUMPI POP PUSH1 0x1 PUSH1 0x1 PUSH1 0xE0 SHL SUB NOT DUP3 AND PUSH4 0x5B5E139F PUSH1 0xE0 SHL EQ JUMPDEST DUP1 PUSH2 0x360 JUMPI POP PUSH4 0x1FFC9A7 PUSH1 0xE0 SHL PUSH1 0x1 PUSH1 0x1 PUSH1 0xE0 SHL SUB NOT DUP4 AND EQ PUSH2 0x360 JUMP JUMPDEST PUSH2 0x1153 DUP4 DUP4 DUP4 PUSH2 0x129D JUMP JUMPDEST PUSH2 0x5F8 JUMPI PUSH1 0x1 PUSH1 0x1 PUSH1 0xA0 SHL SUB DUP4 AND PUSH2 0x1181 JUMPI PUSH1 0x40 MLOAD PUSH4 0x7E273289 PUSH1 0xE0 SHL DUP2 MSTORE PUSH1 0x4 DUP2 ADD DUP3 SWAP1 MSTORE PUSH1 0x24 ADD PUSH2 0x48A JUMP JUMPDEST PUSH1 0x40 MLOAD PUSH4 0x177E802F PUSH1 0xE0 SHL DUP2 MSTORE PUSH1 0x1 PUSH1 0x1 PUSH1 0xA0 SHL SUB DUP4 AND PUSH1 0x4 DUP3 ADD MSTORE PUSH1 0x24 DUP2 ADD DUP3 SWAP1 MSTORE PUSH1 0x44 ADD PUSH2 0x48A JUMP JUMPDEST PUSH1 0x1 PUSH1 0x1 PUSH1 0xA0 SHL SUB DUP3 AND PUSH2 0x11D5 JUMPI PUSH1 0x40 MLOAD PUSH4 0x32505749 PUSH1 0xE1 SHL DUP2 MSTORE PUSH0 PUSH1 0x4 DUP3 ADD MSTORE PUSH1 0x24 ADD PUSH2 0x48A JUMP JUMPDEST PUSH0 PUSH2 0x11E1 DUP4 DUP4 PUSH0 PUSH2 0x8E1 JUMP JUMPDEST SWAP1 POP PUSH1 0x1 PUSH1 0x1 PUSH1 0xA0 SHL SUB DUP2 AND ISZERO PUSH2 0x5F8 JUMPI PUSH1 0x40 MLOAD PUSH4 0x39E35637 PUSH1 0xE1 SHL DUP2 MSTORE PUSH0 PUSH1 0x4 DUP3 ADD MSTORE PUSH1 0x24 ADD PUSH2 0x48A JUMP JUMPDEST PUSH1 0x60 PUSH0 PUSH2 0x1219 DUP4 PUSH2 0x12FE JUMP JUMPDEST PUSH1 0x1 ADD SWAP1 POP PUSH0 DUP2 PUSH8 0xFFFFFFFFFFFFFFFF DUP2 GT ISZERO PUSH2 0x1238 JUMPI PUSH2 0x1238 PUSH2 0x1517 JUMP JUMPDEST PUSH1 0x40 MLOAD SWAP1 DUP1 DUP3 MSTORE DUP1 PUSH1 0x1F ADD PUSH1 0x1F NOT AND PUSH1 0x20 ADD DUP3 ADD PUSH1 0x40 MSTORE DUP1 ISZERO PUSH2 0x1262 JUMPI PUSH1 0x20 DUP3 ADD DUP2 DUP1 CALLDATASIZE DUP4 CALLDATACOPY ADD SWAP1 POP JUMPDEST POP SWAP1 POP DUP2 DUP2 ADD PUSH1 0x20 ADD JUMPDEST PUSH0 NOT ADD PUSH16 0x181899199A1A9B1B9C1CB0B131B232B3 PUSH1 0x81 SHL PUSH1 0xA DUP7 MOD BYTE DUP2 MSTORE8 PUSH1 0xA DUP6 DIV SWAP5 POP DUP5 PUSH2 0x126C JUMPI POP SWAP4 SWAP3 POP POP POP JUMP JUMPDEST PUSH0 PUSH1 0x1 PUSH1 0x1 PUSH1 0xA0 SHL SUB DUP4 AND ISZERO DUP1 ISZERO SWAP1 PUSH2 0xDB0 JUMPI POP DUP3 PUSH1 0x1 PUSH1 0x1 PUSH1 0xA0 SHL SUB AND DUP5 PUSH1 0x1 PUSH1 0x1 PUSH1 0xA0 SHL SUB AND EQ DUP1 PUSH2 0x12D6 JUMPI POP PUSH2 0x12D6 DUP5 DUP5 PUSH2 0x7E4 JUMP JUMPDEST DUP1 PUSH2 0xDB0 JUMPI POP POP PUSH0 SWAP1 DUP2 MSTORE PUSH1 0x4 PUSH1 0x20 MSTORE PUSH1 0x40 SWAP1 KECCAK256 SLOAD PUSH1 0x1 PUSH1 0x1 PUSH1 0xA0 SHL SUB SWAP1 DUP2 AND SWAP2 AND EQ SWAP2 SWAP1 POP JUMP JUMPDEST PUSH0 DUP1 PUSH19 0x184F03E93FF9F4DAA797ED6E38ED64BF6A1F01 PUSH1 0x40 SHL DUP4 LT PUSH2 0x133C JUMPI PUSH19 0x184F03E93FF9F4DAA797ED6E38ED64BF6A1F01 PUSH1 0x40 SHL DUP4 DIV SWAP3 POP PUSH1 0x40 ADD JUMPDEST PUSH14 0x4EE2D6D415B85ACEF8100000000 DUP4 LT PUSH2 0x1368 JUMPI PUSH14 0x4EE2D6D415B85ACEF8100000000 DUP4 DIV SWAP3 POP PUSH1 0x20 ADD JUMPDEST PUSH7 0x2386F26FC10000 DUP4 LT PUSH2 0x1386 JUMPI PUSH7 0x2386F26FC10000 DUP4 DIV SWAP3 POP PUSH1 0x10 ADD JUMPDEST PUSH4 0x5F5E100 DUP4 LT PUSH2 0x139E JUMPI PUSH4 0x5F5E100 DUP4 DIV SWAP3 POP PUSH1 0x8 ADD JUMPDEST PUSH2 0x2710 DUP4 LT PUSH2 0x13B2 JUMPI PUSH2 0x2710 DUP4 DIV SWAP3 POP PUSH1 0x4 ADD JUMPDEST PUSH1 0x64 DUP4 LT PUSH2 0x13C4 JUMPI PUSH1 0x64 DUP4 DIV SWAP3 POP PUSH1 0x2 ADD JUMPDEST PUSH1 0xA DUP4 LT PUSH2 0x360 JUMPI PUSH1 0x1 ADD SWAP3 SWAP2 POP POP JUMP JUMPDEST PUSH1 0x1 PUSH1 0x1 PUSH1 0xE0 SHL SUB NOT DUP2 AND DUP2 EQ PUSH2 0x60E JUMPI PUSH0 DUP1 REVERT JUMPDEST PUSH0 PUSH1 0x20 DUP3 DUP5 SUB SLT ISZERO PUSH2 0x13FA JUMPI PUSH0 DUP1 REVERT JUMPDEST DUP2 CALLDATALOAD PUSH2 0x10F2 DUP2 PUSH2 0x13D5 JUMP JUMPDEST PUSH0 JUMPDEST DUP4 DUP2 LT ISZERO PUSH2 0x141F JUMPI DUP2 DUP2 ADD MLOAD DUP4 DUP3 ADD MSTORE PUSH1 0x20 ADD PUSH2 0x1407 JUMP JUMPDEST POP POP PUSH0 SWAP2 ADD MSTORE JUMP JUMPDEST PUSH0 DUP2 MLOAD DUP1 DUP5 MSTORE PUSH2 0x143E DUP2 PUSH1 0x20 DUP7 ADD PUSH1 0x20 DUP7 ADD PUSH2 0x1405 JUMP JUMPDEST PUSH1 0x1F ADD PUSH1 0x1F NOT AND SWAP3 SWAP1 SWAP3 ADD PUSH1 0x20 ADD SWAP3 SWAP2 POP POP JUMP JUMPDEST PUSH1 0x20 DUP2 MSTORE PUSH0 PUSH2 0x10F2 PUSH1 0x20 DUP4 ADD DUP5 PUSH2 0x1427 JUMP JUMPDEST PUSH0 PUSH1 0x20 DUP3 DUP5 SUB SLT ISZERO PUSH2 0x1474 JUMPI PUSH0 DUP1 REVERT JUMPDEST POP CALLDATALOAD SWAP2 SWAP1 POP JUMP JUMPDEST DUP1 CALLDATALOAD PUSH1 0x1 PUSH1 0x1 PUSH1 0xA0 SHL SUB DUP2 AND DUP2 EQ PUSH2 0x1491 JUMPI PUSH0 DUP1 REVERT JUMPDEST SWAP2 SWAP1 POP JUMP JUMPDEST PUSH0 DUP1 PUSH1 0x40 DUP4 DUP6 SUB SLT ISZERO PUSH2 0x14A7 JUMPI PUSH0 DUP1 REVERT JUMPDEST PUSH2 0x14B0 DUP4 PUSH2 0x147B JUMP JUMPDEST SWAP5 PUSH1 0x20 SWAP4 SWAP1 SWAP4 ADD CALLDATALOAD SWAP4 POP POP POP JUMP JUMPDEST PUSH0 DUP1 PUSH0 PUSH1 0x60 DUP5 DUP7 SUB SLT ISZERO PUSH2 0x14D0 JUMPI PUSH0 DUP1 REVERT JUMPDEST PUSH2 0x14D9 DUP5 PUSH2 0x147B JUMP JUMPDEST SWAP3 POP PUSH2 0x14E7 PUSH1 0x20 DUP6 ADD PUSH2 0x147B JUMP JUMPDEST SWAP2 POP PUSH1 0x40 DUP5 ADD CALLDATALOAD SWAP1 POP SWAP3 POP SWAP3 POP SWAP3 JUMP JUMPDEST PUSH0 DUP1 PUSH1 0x40 DUP4 DUP6 SUB SLT ISZERO PUSH2 0x1508 JUMPI PUSH0 DUP1 REVERT JUMPDEST POP POP DUP1 CALLDATALOAD SWAP3 PUSH1 0x20 SWAP1 SWAP2 ADD CALLDATALOAD SWAP2 POP JUMP JUMPDEST PUSH4 0x4E487B71 PUSH1 0xE0 SHL PUSH0 MSTORE PUSH1 0x41 PUSH1 0x4 MSTORE PUSH1 0x24 PUSH0 REVERT JUMPDEST PUSH0 PUSH8 0xFFFFFFFFFFFFFFFF DUP1 DUP5 GT ISZERO PUSH2 0x1545 JUMPI PUSH2 0x1545 PUSH2 0x1517 JUMP JUMPDEST PUSH1 0x40 MLOAD PUSH1 0x1F DUP6 ADD PUSH1 0x1F NOT SWAP1 DUP2 AND PUSH1 0x3F ADD AND DUP2 ADD SWAP1 DUP3 DUP3 GT DUP2 DUP4 LT OR ISZERO PUSH2 0x156D JUMPI PUSH2 0x156D PUSH2 0x1517 JUMP JUMPDEST DUP2 PUSH1 0x40 MSTORE DUP1 SWAP4 POP DUP6 DUP2 MSTORE DUP7 DUP7 DUP7 ADD GT ISZERO PUSH2 0x1585 JUMPI PUSH0 DUP1 REVERT JUMPDEST DUP6 DUP6 PUSH1 0x20 DUP4 ADD CALLDATACOPY PUSH0 PUSH1 0x20 DUP8 DUP4 ADD ADD MSTORE POP POP POP SWAP4 SWAP3 POP POP POP JUMP JUMPDEST PUSH0 DUP1 PUSH1 0x40 DUP4 DUP6 SUB SLT ISZERO PUSH2 0x15AF JUMPI PUSH0 DUP1 REVERT JUMPDEST PUSH2 0x15B8 DUP4 PUSH2 0x147B JUMP JUMPDEST SWAP2 POP PUSH1 0x20 DUP4 ADD CALLDATALOAD PUSH8 0xFFFFFFFFFFFFFFFF DUP2 GT ISZERO PUSH2 0x15D3 JUMPI PUSH0 DUP1 REVERT JUMPDEST DUP4 ADD PUSH1 0x1F DUP2 ADD DUP6 SGT PUSH2 0x15E3 JUMPI PUSH0 DUP1 REVERT JUMPDEST PUSH2 0x15F2 DUP6 DUP3 CALLDATALOAD PUSH1 0x20 DUP5 ADD PUSH2 0x152B JUMP JUMPDEST SWAP2 POP POP SWAP3 POP SWAP3 SWAP1 POP JUMP JUMPDEST PUSH0 DUP1 PUSH0 PUSH1 0x60 DUP5 DUP7 SUB SLT ISZERO PUSH2 0x160E JUMPI PUSH0 DUP1 REVERT JUMPDEST DUP4 CALLDATALOAD SWAP3 POP PUSH2 0x161E PUSH1 0x20 DUP6 ADD PUSH2 0x147B JUMP JUMPDEST SWAP2 POP PUSH1 0x40 DUP5 ADD CALLDATALOAD PUSH1 0x1 PUSH1 0x1 PUSH1 0x60 SHL SUB DUP2 AND DUP2 EQ PUSH2 0x1639 JUMPI PUSH0 DUP1 REVERT JUMPDEST DUP1 SWAP2 POP POP SWAP3 POP SWAP3 POP SWAP3 JUMP JUMPDEST PUSH0 PUSH1 0x20 DUP3 DUP5 SUB SLT ISZERO PUSH2 0x1654 JUMPI PUSH0 DUP1 REVERT JUMPDEST PUSH2 0x10F2 DUP3 PUSH2 0x147B JUMP JUMPDEST PUSH0 DUP1 PUSH1 0x40 DUP4 DUP6 SUB SLT ISZERO PUSH2 0x166E JUMPI PUSH0 DUP1 REVERT JUMPDEST PUSH2 0x1677 DUP4 PUSH2 0x147B JUMP JUMPDEST SWAP2 POP PUSH1 0x20 DUP4 ADD CALLDATALOAD DUP1 ISZERO ISZERO DUP2 EQ PUSH2 0x168B JUMPI PUSH0 DUP1 REVERT JUMPDEST DUP1 SWAP2 POP POP SWAP3 POP SWAP3 SWAP1 POP JUMP JUMPDEST PUSH0 DUP1 PUSH0 DUP1 PUSH1 0x80 DUP6 DUP8 SUB SLT ISZERO PUSH2 0x16A9 JUMPI PUSH0 DUP1 REVERT JUMPDEST PUSH2 0x16B2 DUP6 PUSH2 0x147B JUMP JUMPDEST SWAP4 POP PUSH2 0x16C0 PUSH1 0x20 DUP7 ADD PUSH2 0x147B JUMP JUMPDEST SWAP3 POP PUSH1 0x40 DUP6 ADD CALLDATALOAD SWAP2 POP PUSH1 0x60 DUP6 ADD CALLDATALOAD PUSH8 0xFFFFFFFFFFFFFFFF DUP2 GT ISZERO PUSH2 0x16E2 JUMPI PUSH0 DUP1 REVERT JUMPDEST DUP6 ADD PUSH1 0x1F DUP2 ADD DUP8 SGT PUSH2 0x16F2 JUMPI PUSH0 DUP1 REVERT JUMPDEST PUSH2 0x1701 DUP8 DUP3 CALLDATALOAD PUSH1 0x20 DUP5 ADD PUSH2 0x152B JUMP JUMPDEST SWAP2 POP POP SWAP3 SWAP6 SWAP2 SWAP5 POP SWAP3 POP JUMP JUMPDEST PUSH0 DUP1 PUSH1 0x40 DUP4 DUP6 SUB SLT ISZERO PUSH2 0x171E JUMPI PUSH0 DUP1 REVERT JUMPDEST PUSH2 0x1727 DUP4 PUSH2 0x147B JUMP JUMPDEST SWAP2 POP PUSH2 0x1735 PUSH1 0x20 DUP5 ADD PUSH2 0x147B JUMP JUMPDEST SWAP1 POP SWAP3 POP SWAP3 SWAP1 POP JUMP JUMPDEST PUSH1 0x1 DUP2 DUP2 SHR SWAP1 DUP3 AND DUP1 PUSH2 0x1752 JUMPI PUSH1 0x7F DUP3 AND SWAP2 POP JUMPDEST PUSH1 0x20 DUP3 LT DUP2 SUB PUSH2 0x1770 JUMPI PUSH4 0x4E487B71 PUSH1 0xE0 SHL PUSH0 MSTORE PUSH1 0x22 PUSH1 0x4 MSTORE PUSH1 0x24 PUSH0 REVERT JUMPDEST POP SWAP2 SWAP1 POP JUMP JUMPDEST PUSH4 0x4E487B71 PUSH1 0xE0 SHL PUSH0 MSTORE PUSH1 0x11 PUSH1 0x4 MSTORE PUSH1 0x24 PUSH0 REVERT JUMPDEST DUP1 DUP3 MUL DUP2 ISZERO DUP3 DUP3 DIV DUP5 EQ OR PUSH2 0x360 JUMPI PUSH2 0x360 PUSH2 0x1776 JUMP JUMPDEST PUSH0 DUP3 PUSH2 0x17BB JUMPI PUSH4 0x4E487B71 PUSH1 0xE0 SHL PUSH0 MSTORE PUSH1 0x12 PUSH1 0x4 MSTORE PUSH1 0x24 PUSH0 REVERT JUMPDEST POP DIV SWAP1 JUMP JUMPDEST PUSH0 PUSH1 0x1 DUP3 ADD PUSH2 0x17D1 JUMPI PUSH2 0x17D1 PUSH2 0x1776 JUMP JUMPDEST POP PUSH1 0x1 ADD SWAP1 JUMP JUMPDEST PUSH1 0x1F DUP3 GT ISZERO PUSH2 0x5F8 JUMPI DUP1 PUSH0 MSTORE PUSH1 0x20 PUSH0 KECCAK256 PUSH1 0x1F DUP5 ADD PUSH1 0x5 SHR DUP2 ADD PUSH1 0x20 DUP6 LT ISZERO PUSH2 0x17FD JUMPI POP DUP1 JUMPDEST PUSH1 0x1F DUP5 ADD PUSH1 0x5 SHR DUP3 ADD SWAP2 POP JUMPDEST DUP2 DUP2 LT ISZERO PUSH2 0xD30 JUMPI PUSH0 DUP2 SSTORE PUSH1 0x1 ADD PUSH2 0x1809 JUMP JUMPDEST DUP2 MLOAD PUSH8 0xFFFFFFFFFFFFFFFF DUP2 GT ISZERO PUSH2 0x1836 JUMPI PUSH2 0x1836 PUSH2 0x1517 JUMP JUMPDEST PUSH2 0x184A DUP2 PUSH2 0x1844 DUP5 SLOAD PUSH2 0x173E JUMP JUMPDEST DUP5 PUSH2 0x17D8 JUMP JUMPDEST PUSH1 0x20 DUP1 PUSH1 0x1F DUP4 GT PUSH1 0x1 DUP2 EQ PUSH2 0x187D JUMPI PUSH0 DUP5 ISZERO PUSH2 0x1866 JUMPI POP DUP6 DUP4 ADD MLOAD JUMPDEST PUSH0 NOT PUSH1 0x3 DUP7 SWAP1 SHL SHR NOT AND PUSH1 0x1 DUP6 SWAP1 SHL OR DUP6 SSTORE PUSH2 0xD2E JUMP JUMPDEST PUSH0 DUP6 DUP2 MSTORE PUSH1 0x20 DUP2 KECCAK256 PUSH1 0x1F NOT DUP7 AND SWAP2 JUMPDEST DUP3 DUP2 LT ISZERO PUSH2 0x18AB JUMPI DUP9 DUP7 ADD MLOAD DUP3 SSTORE SWAP5 DUP5 ADD SWAP5 PUSH1 0x1 SWAP1 SWAP2 ADD SWAP1 DUP5 ADD PUSH2 0x188C JUMP JUMPDEST POP DUP6 DUP3 LT ISZERO PUSH2 0x18C8 JUMPI DUP8 DUP6 ADD MLOAD PUSH0 NOT PUSH1 0x3 DUP9 SWAP1 SHL PUSH1 0xF8 AND SHR NOT AND DUP2 SSTORE JUMPDEST POP POP POP POP POP PUSH1 0x1 SWAP1 DUP2 SHL ADD SWAP1 SSTORE POP JUMP JUMPDEST PUSH1 0x1 PUSH1 0x1 PUSH1 0xA0 SHL SUB DUP6 DUP2 AND DUP3 MSTORE DUP5 AND PUSH1 0x20 DUP3 ADD MSTORE PUSH1 0x40 DUP2 ADD DUP4 SWAP1 MSTORE PUSH1 0x80 PUSH1 0x60 DUP3 ADD DUP2 SWAP1 MSTORE PUSH0 SWAP1 PUSH2 0x190A SWAP1 DUP4 ADD DUP5 PUSH2 0x1427 JUMP JUMPDEST SWAP7 SWAP6 POP POP POP POP POP POP JUMP JUMPDEST PUSH0 PUSH1 0x20 DUP3 DUP5 SUB SLT ISZERO PUSH2 0x1924 JUMPI PUSH0 DUP1 REVERT JUMPDEST DUP2 MLOAD PUSH2 0x10F2 DUP2 PUSH2 0x13D5 JUMP JUMPDEST PUSH0 DUP4 MLOAD PUSH2 0x1940 DUP2 DUP5 PUSH1 0x20 DUP9 ADD PUSH2 0x1405 JUMP JUMPDEST DUP4 MLOAD SWAP1 DUP4 ADD SWAP1 PUSH2 0x1954 DUP2 DUP4 PUSH1 0x20 DUP9 ADD PUSH2 0x1405 JUMP JUMPDEST ADD SWAP5 SWAP4 POP POP POP POP JUMP INVALID LOG2 PUSH5 0x6970667358 0x22 SLT KECCAK256 0xE0 SWAP5 0xC6 DUP16 MLOAD 0xBA POP CALLDATASIZE PUSH23 0x3656DA3003991D8D11D25EA2442362EE1182C52772C32A PUSH5 0x736F6C6343 STOP ADDMOD XOR STOP CALLER "},"methodIdentifiers":{"approve(address,uint256)":"095ea7b3","balanceOf(address)":"70a08231","burn(uint256)":"42966c68","getApproved(uint256)":"081812fc","isApprovedForAll(address,address)":"e985e9c5","isLocked(uint256)":"f6aacfb1","lockTicket(uint256)":"71e20902","mintTicket(address,string)":"5388842c","name()":"06fdde03","owner()":"8da5cb5b","ownerOf(uint256)":"6352211e","renounceOwnership()":"715018a6","royaltyInfo(uint256,uint256)":"2a55205a","safeTransferFrom(address,address,uint256)":"42842e0e","safeTransferFrom(address,address,uint256,bytes)":"b88d4fde","setApprovalForAll(address,bool)":"a22cb465","setTokenRoyalty(uint256,address,uint96)":"5944c753","supportsInterface(bytes4)":"01ffc9a7","symbol()":"95d89b41","tokenURI(uint256)":"c87b56dd","transferFrom(address,address,uint256)":"23b872dd","transferOwnership(address)":"f2fde38b","unlockTicket(uint256)":"10bcbec7"}}}}}