{
  "_format": "hh-sol-artifact-1",
  "contractName": "BASTicketNFT",
  "sourceName": "contracts/BASTicketNFT.sol",
  "abi": [
    {
      "inputs": [
        {
          "internalType": "address",
          "name": "initialOwner",
          "type": "address"
        }
      ],
      "stateMutability": "nonpayable",
      "type": "constructor"
    },
    {
      "inputs": [
        {
          "internalType": "uint256",
          "name": "numerator",
          "type": "uint256"
        },
        {
          "internalType": "uint256",
          "name": "denominator",
          "type": "uint256"
        }
      ],
      "name": "ERC2981InvalidDefaultRoyalty",
      "type": "error"
    },
    {
      "inputs": [
        {
          "internalType": "address",
          "name": "receiver",
          "type": "address"
        }
      ],
      "name": "ERC2981InvalidDefaultRoyaltyReceiver",
      "type": "error"
    },
    {
      "inputs": [
        {
          "internalType": "uint256",
          "name": "tokenId",
          "type": "uint256"
        },
        {
          "internalType": "uint256",
          "name": "numerator",
          "type": "uint256"
        },
        {
          "internalType": "uint256",
          "name": "denominator",
          "type": "uint256"
        }
      ],
      "name": "ERC2981InvalidTokenRoyalty",
      "type": "error"
    },
    {
      "inputs": [
        {
          "internalType": "uint256",
          "name": "tokenId",
          "type": "uint256"
        },
        {
          "internalType": "address",
          "name": "receiver",
          "type": "address"
        }
      ],
      "name": "ERC2981InvalidTokenRoyaltyReceiver",
      "type": "error"
    },
    {
      "inputs": [
        {
          "internalType": "address",
          "name": "sender",
          "type": "address"
        },
        {
          "internalType": "uint256",
          "name": "tokenId",
          "type": "uint256"
        },
        {
          "internalType": "address",
          "name": "owner",
          "type": "address"
        }
      ],
      "name": "ERC721IncorrectOwner",
      "type": "error"
    },
    {
      "inputs": [
        {
          "internalType": "address",
          "name": "operator",
          "type": "address"
        },
        {
          "internalType": "uint256",
          "name": "tokenId",
          "type": "uint256"
        }
      ],
      "name": "ERC721InsufficientApproval",
      "type": "error"
    },
    {
      "inputs": [
        {
          "internalType": "address",
          "name": "approver",
          "type": "address"
        }
      ],
      "name": "ERC721InvalidApprover",
      "type": "error"
    },
    {
      "inputs": [
        {
          "internalType": "address",
          "name": "operator",
          "type": "address"
        }
      ],
      "name": "ERC721InvalidOperator",
      "type": "error"
    },
    {
      "inputs": [
        {
          "internalType": "address",
          "name": "owner",
          "type": "address"
        }
      ],
      "name": "ERC721InvalidOwner",
      "type": "error"
    },
    {
      "inputs": [
        {
          "internalType": "address",
          "name": "receiver",
          "type": "address"
        }
      ],
      "name": "ERC721InvalidReceiver",
      "type": "error"
    },
    {
      "inputs": [
        {
          "internalType": "address",
          "name": "sender",
          "type": "address"
        }
      ],
      "name": "ERC721InvalidSender",
      "type": "error"
    },
    {
      "inputs": [
        {
          "internalType": "uint256",
          "name": "tokenId",
          "type": "uint256"
        }
      ],
      "name": "ERC721NonexistentToken",
      "type": "error"
    },
    {
      "inputs": [
        {
          "internalType": "address",
          "name": "owner",
          "type": "address"
        }
      ],
      "name": "OwnableInvalidOwner",
      "type": "error"
    },
    {
      "inputs": [
        {
          "internalType": "address",
          "name": "account",
          "type": "address"
        }
      ],
      "name": "OwnableUnauthorizedAccount",
      "type": "error"
    },
    {
      "anonymous": false,
      "inputs": [
        {
          "indexed": true,
          "internalType": "address",
          "name": "owner",
          "type": "address"
        },
        {
          "indexed": true,
          "internalType": "address",
          "name": "approved",
          "type": "address"
        },
        {
          "indexed": true,
          "internalType": "uint256",
          "name": "tokenId",
          "type": "uint256"
        }
      ],
      "name": "Approval",
      "type": "event"
    },
    {
      "anonymous": false,
      "inputs": [
        {
          "indexed": true,
          "internalType": "address",
          "name": "owner",
          "type": "address"
        },
        {
          "indexed": true,
          "internalType": "address",
          "name": "operator",
          "type": "address"
        },
        {
          "indexed": false,
          "internalType": "bool",
          "name": "approved",
          "type": "bool"
        }
      ],
      "name": "ApprovalForAll",
      "type": "event"
    },
    {
      "anonymous": false,
      "inputs": [
        {
          "indexed": false,
          "internalType": "uint256",
          "name": "_fromTokenId",
          "type": "uint256"
        },
        {
          "indexed": false,
          "internalType": "uint256",
          "name": "_toTokenId",
          "type": "uint256"
        }
      ],
      "name": "BatchMetadataUpdate",
      "type": "event"
    },
    {
      "anonymous": false,
      "inputs": [
        {
          "indexed": true,
          "internalType": "string",
          "name": "orderId",
          "type": "string"
        },
        {
          "indexed": false,
          "internalType": "uint256",
          "name": "totalAmount",
          "type": "uint256"
        },
        {
          "indexed": false,
          "internalType": "uint256",
          "name": "ticketPlatformFee",
          "type": "uint256"
        },
        {
          "indexed": false,
          "internalType": "uint256",
          "name": "ticketCommissionFee",
          "type": "uint256"
        },
        {
          "indexed": false,
          "internalType": "uint256",
          "name": "merchPlatformFee",
          "type": "uint256"
        },
        {
          "indexed": false,
          "internalType": "uint256",
          "name": "merchCommissionFee",
          "type": "uint256"
        },
        {
          "indexed": false,
          "internalType": "uint256",
          "name": "gasFee",
          "type": "uint256"
        },
        {
          "indexed": false,
          "internalType": "uint256",
          "name": "royaltyFee",
          "type": "uint256"
        },
        {
          "indexed": false,
          "internalType": "string",
          "name": "transactionType",
          "type": "string"
        },
        {
          "indexed": true,
          "internalType": "address",
          "name": "payer",
          "type": "address"
        },
        {
          "indexed": false,
          "internalType": "uint256",
          "name": "timestamp",
          "type": "uint256"
        }
      ],
      "name": "FinancialLog",
      "type": "event"
    },
    {
      "anonymous": false,
      "inputs": [
        {
          "indexed": false,
          "internalType": "uint256",
          "name": "_tokenId",
          "type": "uint256"
        }
      ],
      "name": "MetadataUpdate",
      "type": "event"
    },
    {
      "anonymous": false,
      "inputs": [
        {
          "indexed": true,
          "internalType": "address",
          "name": "previousOwner",
          "type": "address"
        },
        {
          "indexed": true,
          "internalType": "address",
          "name": "newOwner",
          "type": "address"
        }
      ],
      "name": "OwnershipTransferred",
      "type": "event"
    },
    {
      "anonymous": false,
      "inputs": [
        {
          "indexed": true,
          "internalType": "uint256",
          "name": "tokenId",
          "type": "uint256"
        }
      ],
      "name": "TicketLocked",
      "type": "event"
    },
    {
      "anonymous": false,
      "inputs": [
        {
          "indexed": true,
          "internalType": "address",
          "name": "to",
          "type": "address"
        },
        {
          "indexed": true,
          "internalType": "uint256",
          "name": "tokenId",
          "type": "uint256"
        },
        {
          "indexed": false,
          "internalType": "string",
          "name": "uri",
          "type": "string"
        }
      ],
      "name": "TicketMinted",
      "type": "event"
    },
    {
      "anonymous": false,
      "inputs": [
        {
          "indexed": true,
          "internalType": "uint256",
          "name": "tokenId",
          "type": "uint256"
        }
      ],
      "name": "TicketUnlocked",
      "type": "event"
    },
    {
      "anonymous": false,
      "inputs": [
        {
          "indexed": true,
          "internalType": "address",
          "name": "from",
          "type": "address"
        },
        {
          "indexed": true,
          "internalType": "address",
          "name": "to",
          "type": "address"
        },
        {
          "indexed": true,
          "internalType": "uint256",
          "name": "tokenId",
          "type": "uint256"
        }
      ],
      "name": "Transfer",
      "type": "event"
    },
    {
      "inputs": [
        {
          "internalType": "address",
          "name": "to",
          "type": "address"
        },
        {
          "internalType": "uint256",
          "name": "tokenId",
          "type": "uint256"
        }
      ],
      "name": "approve",
      "outputs": [],
      "stateMutability": "nonpayable",
      "type": "function"
    },
    {
      "inputs": [
        {
          "internalType": "address",
          "name": "owner",
          "type": "address"
        }
      ],
      "name": "balanceOf",
      "outputs": [
        {
          "internalType": "uint256",
          "name": "",
          "type": "uint256"
        }
      ],
      "stateMutability": "view",
      "type": "function"
    },
    {
      "inputs": [
        {
          "internalType": "uint256",
          "name": "tokenId",
          "type": "uint256"
        }
      ],
      "name": "burn",
      "outputs": [],
      "stateMutability": "nonpayable",
      "type": "function"
    },
    {
      "inputs": [
        {
          "internalType": "address",
          "name": "from",
          "type": "address"
        },
        {
          "internalType": "address",
          "name": "to",
          "type": "address"
        },
        {
          "internalType": "uint256",
          "name": "tokenId",
          "type": "uint256"
        }
      ],
      "name": "forceTransfer",
      "outputs": [],
      "stateMutability": "nonpayable",
      "type": "function"
    },
    {
      "inputs": [
        {
          "internalType": "uint256",
          "name": "tokenId",
          "type": "uint256"
        }
      ],
      "name": "getApproved",
      "outputs": [
        {
          "internalType": "address",
          "name": "",
          "type": "address"
        }
      ],
      "stateMutability": "view",
      "type": "function"
    },
    {
      "inputs": [
        {
          "internalType": "address",
          "name": "owner",
          "type": "address"
        },
        {
          "internalType": "address",
          "name": "operator",
          "type": "address"
        }
      ],
      "name": "isApprovedForAll",
      "outputs": [
        {
          "internalType": "bool",
          "name": "",
          "type": "bool"
        }
      ],
      "stateMutability": "view",
      "type": "function"
    },
    {
      "inputs": [
        {
          "internalType": "uint256",
          "name": "",
          "type": "uint256"
        }
      ],
      "name": "isLocked",
      "outputs": [
        {
          "internalType": "bool",
          "name": "",
          "type": "bool"
        }
      ],
      "stateMutability": "view",
      "type": "function"
    },
    {
      "inputs": [
        {
          "internalType": "uint256",
          "name": "tokenId",
          "type": "uint256"
        }
      ],
      "name": "lockTicket",
      "outputs": [],
      "stateMutability": "nonpayable",
      "type": "function"
    },
    {
      "inputs": [
        {
          "internalType": "string",
          "name": "orderId",
          "type": "string"
        },
        {
          "internalType": "uint256",
          "name": "totalAmount",
          "type": "uint256"
        },
        {
          "internalType": "uint256",
          "name": "ticketPlatformFee",
          "type": "uint256"
        },
        {
          "internalType": "uint256",
          "name": "ticketCommissionFee",
          "type": "uint256"
        },
        {
          "internalType": "uint256",
          "name": "merchPlatformFee",
          "type": "uint256"
        },
        {
          "internalType": "uint256",
          "name": "merchCommissionFee",
          "type": "uint256"
        },
        {
          "internalType": "uint256",
          "name": "gasFee",
          "type": "uint256"
        },
        {
          "internalType": "uint256",
          "name": "royaltyFee",
          "type": "uint256"
        },
        {
          "internalType": "string",
          "name": "transactionType",
          "type": "string"
        },
        {
          "internalType": "address",
          "name": "payer",
          "type": "address"
        }
      ],
      "name": "logFinancialTransaction",
      "outputs": [],
      "stateMutability": "nonpayable",
      "type": "function"
    },
    {
      "inputs": [
        {
          "internalType": "address",
          "name": "to",
          "type": "address"
        },
        {
          "internalType": "string",
          "name": "uri",
          "type": "string"
        }
      ],
      "name": "mintTicket",
      "outputs": [
        {
          "internalType": "uint256",
          "name": "",
          "type": "uint256"
        }
      ],
      "stateMutability": "nonpayable",
      "type": "function"
    },
    {
      "inputs": [],
      "name": "name",
      "outputs": [
        {
          "internalType": "string",
          "name": "",
          "type": "string"
        }
      ],
      "stateMutability": "view",
      "type": "function"
    },
    {
      "inputs": [],
      "name": "owner",
      "outputs": [
        {
          "internalType": "address",
          "name": "",
          "type": "address"
        }
      ],
      "stateMutability": "view",
      "type": "function"
    },
    {
      "inputs": [
        {
          "internalType": "uint256",
          "name": "tokenId",
          "type": "uint256"
        }
      ],
      "name": "ownerOf",
      "outputs": [
        {
          "internalType": "address",
          "name": "",
          "type": "address"
        }
      ],
      "stateMutability": "view",
      "type": "function"
    },
    {
      "inputs": [],
      "name": "renounceOwnership",
      "outputs": [],
      "stateMutability": "nonpayable",
      "type": "function"
    },
    {
      "inputs": [
        {
          "internalType": "uint256",
          "name": "tokenId",
          "type": "uint256"
        },
        {
          "internalType": "uint256",
          "name": "salePrice",
          "type": "uint256"
        }
      ],
      "name": "royaltyInfo",
      "outputs": [
        {
          "internalType": "address",
          "name": "receiver",
          "type": "address"
        },
        {
          "internalType": "uint256",
          "name": "amount",
          "type": "uint256"
        }
      ],
      "stateMutability": "view",
      "type": "function"
    },
    {
      "inputs": [
        {
          "internalType": "address",
          "name": "from",
          "type": "address"
        },
        {
          "internalType": "address",
          "name": "to",
          "type": "address"
        },
        {
          "internalType": "uint256",
          "name": "tokenId",
          "type": "uint256"
        }
      ],
      "name": "safeTransferFrom",
      "outputs": [],
      "stateMutability": "nonpayable",
      "type": "function"
    },
    {
      "inputs": [
        {
          "internalType": "address",
          "name": "from",
          "type": "address"
        },
        {
          "internalType": "address",
          "name": "to",
          "type": "address"
        },
        {
          "internalType": "uint256",
          "name": "tokenId",
          "type": "uint256"
        },
        {
          "internalType": "bytes",
          "name": "data",
          "type": "bytes"
        }
      ],
      "name": "safeTransferFrom",
      "outputs": [],
      "stateMutability": "nonpayable",
      "type": "function"
    },
    {
      "inputs": [
        {
          "internalType": "address",
          "name": "operator",
          "type": "address"
        },
        {
          "internalType": "bool",
          "name": "approved",
          "type": "bool"
        }
      ],
      "name": "setApprovalForAll",
      "outputs": [],
      "stateMutability": "nonpayable",
      "type": "function"
    },
    {
      "inputs": [
        {
          "internalType": "uint256",
          "name": "tokenId",
          "type": "uint256"
        },
        {
          "internalType": "address",
          "name": "receiver",
          "type": "address"
        },
        {
          "internalType": "uint96",
          "name": "feeNumerator",
          "type": "uint96"
        }
      ],
      "name": "setTokenRoyalty",
      "outputs": [],
      "stateMutability": "nonpayable",
      "type": "function"
    },
    {
      "inputs": [
        {
          "internalType": "bytes4",
          "name": "interfaceId",
          "type": "bytes4"
        }
      ],
      "name": "supportsInterface",
      "outputs": [
        {
          "internalType": "bool",
          "name": "",
          "type": "bool"
        }
      ],
      "stateMutability": "view",
      "type": "function"
    },
    {
      "inputs": [],
      "name": "symbol",
      "outputs": [
        {
          "internalType": "string",
          "name": "",
          "type": "string"
        }
      ],
      "stateMutability": "view",
      "type": "function"
    },
    {
      "inputs": [
        {
          "internalType": "uint256",
          "name": "tokenId",
          "type": "uint256"
        }
      ],
      "name": "tokenURI",
      "outputs": [
        {
          "internalType": "string",
          "name": "",
          "type": "string"
        }
      ],
      "stateMutability": "view",
      "type": "function"
    },
    {
      "inputs": [
        {
          "internalType": "address",
          "name": "from",
          "type": "address"
        },
        {
          "internalType": "address",
          "name": "to",
          "type": "address"
        },
        {
          "internalType": "uint256",
          "name": "tokenId",
          "type": "uint256"
        }
      ],
      "name": "transferFrom",
      "outputs": [],
      "stateMutability": "nonpayable",
      "type": "function"
    },
    {
      "inputs": [
        {
          "internalType": "address",
          "name": "newOwner",
          "type": "address"
        }
      ],
      "name": "transferOwnership",
      "outputs": [],
      "stateMutability": "nonpayable",
      "type": "function"
    },
    {
      "inputs": [
        {
          "internalType": "uint256",
          "name": "tokenId",
          "type": "uint256"
        }
      ],
      "name": "unlockTicket",
      "outputs": [],
      "stateMutability": "nonpayable",
      "type": "function"
    }
  ],
  "bytecode": "0x608060405234801562000010575f80fd5b50604051620020a0380380620020a08339810160408190526200003391620001dd565b806040518060400160405280600a815260200169109054c8151a58dad95d60b21b81525060405180604001604052806004815260200163109054d560e21b815250815f9081620000849190620002aa565b506001620000938282620002aa565b5050506001600160a01b038116620000c557604051631e4fbdf760e01b81525f60048201526024015b60405180910390fd5b620000d081620000e6565b50620000df816101f462000137565b5062000376565b600980546001600160a01b038381166001600160a01b0319831681179093556040519116919082907f8be0079c531659141344cd1fd0a4f28419497f9722a3daafe3b4186f6b6457e0905f90a35050565b6127106001600160601b0382168110156200017857604051636f483d0960e01b81526001600160601b038316600482015260248101829052604401620000bc565b6001600160a01b038316620001a357604051635b6cc80560e11b81525f6004820152602401620000bc565b50604080518082019091526001600160a01b039092168083526001600160601b039091166020909201829052600160a01b90910217600755565b5f60208284031215620001ee575f80fd5b81516001600160a01b038116811462000205575f80fd5b9392505050565b634e487b7160e01b5f52604160045260245ffd5b600181811c908216806200023557607f821691505b6020821081036200025457634e487b7160e01b5f52602260045260245ffd5b50919050565b601f821115620002a557805f5260205f20601f840160051c81016020851015620002815750805b601f840160051c820191505b81811015620002a2575f81556001016200028d565b50505b505050565b81516001600160401b03811115620002c657620002c66200020c565b620002de81620002d7845462000220565b846200025a565b602080601f83116001811462000314575f8415620002fc5750858301515b5f19600386901b1c1916600185901b1785556200036e565b5f85815260208120601f198616915b82811015620003445788860151825594840194600190910190840162000323565b50858210156200036257878501515f19600388901b60f8161c191681555b505060018460011b0185555b505050505050565b611d1c80620003845f395ff3fe608060405234801561000f575f80fd5b506004361061016d575f3560e01c80635944c753116100d957806395d89b4111610093578063c87b56dd1161006e578063c87b56dd14610346578063e985e9c514610359578063f2fde38b1461036c578063f6aacfb11461037f575f80fd5b806395d89b4114610318578063a22cb46514610320578063b88d4fde14610333575f80fd5b80635944c753146102b35780636352211e146102c657806370a08231146102d9578063715018a6146102ec57806371e20902146102f45780638da5cb5b14610307575f80fd5b80632a55205a1161012a5780632a55205a1461021457806333bebb771461024657806342842e0e1461025957806342966c681461026c5780634f0b0c3b1461027f5780635388842c14610292575f80fd5b806301ffc9a71461017157806306fdde0314610199578063081812fc146101ae578063095ea7b3146101d957806310bcbec7146101ee57806323b872dd14610201575b5f80fd5b61018461017f3660046115fe565b6103a1565b60405190151581526020015b60405180910390f35b6101a16103b1565b6040516101909190611666565b6101c16101bc366004611678565b610440565b6040516001600160a01b039091168152602001610190565b6101ec6101e73660046116aa565b610467565b005b6101ec6101fc366004611678565b610476565b6101ec61020f3660046116d2565b61051d565b61022761022236600461170b565b6105a6565b604080516001600160a01b039093168352602083019190915201610190565b6101ec6102543660046116d2565b610629565b6101ec6102673660046116d2565b6106eb565b6101ec61027a366004611678565b610705565b6101ec61028d3660046117d0565b610719565b6102a56102a0366004611882565b610794565b604051908152602001610190565b6101ec6102c13660046118cd565b610810565b6101c16102d4366004611678565b610823565b6102a56102e7366004611915565b61082d565b6101ec610872565b6101ec610302366004611678565b610885565b6009546001600160a01b03166101c1565b6101a161092a565b6101ec61032e36600461192e565b610939565b6101ec610341366004611967565b610944565b6101a1610354366004611678565b61095c565b6101846103673660046119de565b610967565b6101ec61037a366004611915565b610994565b61018461038d366004611678565b600b6020525f908152604090205460ff1681565b5f6103ab826109ce565b92915050565b60605f80546103bf90611a0f565b80601f01602080910402602001604051908101604052809291908181526020018280546103eb90611a0f565b80156104365780601f1061040d57610100808354040283529160200191610436565b820191905f5260205f20905b81548152906001019060200180831161041957829003601f168201915b5050505050905090565b5f61044a826109f2565b505f828152600460205260409020546001600160a01b03166103ab565b610472828233610a2a565b5050565b61047e610a37565b5f818152600260205260409020546001600160a01b03166104de5760405162461bcd60e51b8152602060048201526015602482015274151a58dad95d08191bd95cc81b9bdd08195e1a5cdd605a1b60448201526064015b60405180910390fd5b5f818152600b6020526040808220805460ff191690555182917f2c0c680ae904e095d6fc75bb8dc3619de3a3a52d161df3cc92cbce36225f489e91a250565b6001600160a01b03821661054657604051633250574960e11b81525f60048201526024016104d5565b5f610552838333610a64565b9050836001600160a01b0316816001600160a01b0316146105a0576040516364283d7b60e01b81526001600160a01b03808616600483015260248201849052821660448201526064016104d5565b50505050565b5f82815260086020526040812080548291906001600160a01b03811690600160a01b90046001600160601b0316816105f95750506007546001600160a01b03811690600160a01b90046001600160601b03165b5f6127106106106001600160601b03841689611a5b565b61061a9190611a72565b92989297509195505050505050565b610631610a37565b5f818152600260205260409020546001600160a01b038481169116146106ad5760405162461bcd60e51b815260206004820152602b60248201527f46726f6d2061646472657373206973206e6f7420746865206f776e6572206f6660448201526a081d1a19481d1a58dad95d60aa1b60648201526084016104d5565b5f818152600b602052604090205460ff16156106db5760405162461bcd60e51b81526004016104d590611a91565b6106e6838383610ad9565b505050565b6106e683838360405180602001604052805f815250610944565b61070d610a37565b61071681610af3565b50565b610721610a37565b806001600160a01b03168a6040516107399190611ad9565b60405180910390207f805f7aeef78fcac79ab6b40307b580cb0dfe9f293a40996cdc91c1cc73a40fe48b8b8b8b8b8b8b8b4260405161078099989796959493929190611af4565b60405180910390a350505050505050505050565b5f61079d610a37565b600a80545f91826107ad83611b49565b9190505590506107bd8482610b2b565b6107c78184610b44565b80846001600160a01b03167ff16f1e8b680ea7f1e8a1f849eb82762cba60ddcef854d36909e3173483281c8c856040516108019190611666565b60405180910390a39392505050565b610818610a37565b6106e6838383610b93565b5f6103ab826109f2565b5f6001600160a01b038216610857576040516322718ad960e21b81525f60048201526024016104d5565b506001600160a01b03165f9081526003602052604090205490565b61087a610a37565b6108835f610c53565b565b61088d610a37565b5f818152600260205260409020546001600160a01b03166108e85760405162461bcd60e51b8152602060048201526015602482015274151a58dad95d08191bd95cc81b9bdd08195e1a5cdd605a1b60448201526064016104d5565b5f818152600b6020526040808220805460ff191660011790555182917f34307a3f5fca60843fdf0d44a7fe1daa84960c21ce84e4d1ecae51d9114cac5991a250565b6060600180546103bf90611a0f565b610472338383610ca4565b61094f84848461051d565b6105a03385858585610d6b565b60606103ab82610e93565b6001600160a01b039182165f90815260056020908152604080832093909416825291909152205460ff1690565b61099c610a37565b6001600160a01b0381166109c557604051631e4fbdf760e01b81525f60048201526024016104d5565b61071681610c53565b5f6001600160e01b0319821663152a902d60e11b14806103ab57506103ab82610f14565b5f818152600260205260408120546001600160a01b0316806103ab57604051637e27328960e01b8152600481018490526024016104d5565b6106e68383836001610f38565b6009546001600160a01b031633146108835760405163118cdaa760e01b81523360048201526024016104d5565b5f828152600260205260408120546001600160a01b03168015801590610a9257506001600160a01b03851615155b15610ac5575f848152600b602052604090205460ff1615610ac55760405162461bcd60e51b81526004016104d590611a91565b610ad085858561103c565b95945050505050565b6106e683838360405180602001604052805f81525061112e565b5f610aff5f835f610a64565b90506001600160a01b03811661047257604051637e27328960e01b8152600481018390526024016104d5565b610472828260405180602001604052805f815250611139565b5f828152600660205260409020610b5b8282611ba5565b506040518281527ff8e1a15aba9398e019f0b49df1a4fde98ee17ae345cb5f6b5e2c27f5033e8ce79060200160405180910390a15050565b6127106001600160601b038216811015610bd95760405163dfd1fc1b60e01b8152600481018590526001600160601b0383166024820152604481018290526064016104d5565b6001600160a01b038316610c0957604051634b4f842960e11b8152600481018590525f60248201526044016104d5565b506040805180820182526001600160a01b0393841681526001600160601b0392831660208083019182525f968752600890529190942093519051909116600160a01b029116179055565b600980546001600160a01b038381166001600160a01b0319831681179093556040519116919082907f8be0079c531659141344cd1fd0a4f28419497f9722a3daafe3b4186f6b6457e0905f90a35050565b6001600160a01b038316610ccd5760405163a9fbf51f60e01b81525f60048201526024016104d5565b6001600160a01b038216610cff57604051630b61174360e31b81526001600160a01b03831660048201526024016104d5565b6001600160a01b038381165f81815260056020908152604080832094871680845294825291829020805460ff191686151590811790915591519182527f17307eab39ab6107e8899845ad3d59bd9653f200f220920489ca2b5937696c31910160405180910390a3505050565b6001600160a01b0383163b15610e8c57604051630a85bd0160e11b81526001600160a01b0384169063150b7a0290610dad908890889087908790600401611c61565b6020604051808303815f875af1925050508015610de7575060408051601f3d908101601f19168201909252610de491810190611c9d565b60015b610e4e573d808015610e14576040519150601f19603f3d011682016040523d82523d5f602084013e610e19565b606091505b5080515f03610e4657604051633250574960e11b81526001600160a01b03851660048201526024016104d5565b805160208201fd5b6001600160e01b03198116630a85bd0160e11b14610e8a57604051633250574960e11b81526001600160a01b03851660048201526024016104d5565b505b5050505050565b6060610e9e826109f2565b505f610eb460408051602081019091525f815290565b90505f610ec084611150565b905081515f03610ed1579392505050565b805115610f03578181604051602001610eeb929190611cb8565b60405160208183030381529060405292505050919050565b610f0c846111ef565b949350505050565b5f6001600160e01b03198216632483248360e11b14806103ab57506103ab82611260565b8080610f4c57506001600160a01b03821615155b1561100d575f610f5b846109f2565b90506001600160a01b03831615801590610f875750826001600160a01b0316816001600160a01b031614155b8015610f9a5750610f988184610967565b155b15610fc35760405163a9fbf51f60e01b81526001600160a01b03841660048201526024016104d5565b811561100b5783856001600160a01b0316826001600160a01b03167f8c5be1e5ebec7d5bd14f71427d1e84f3dd0314c0f7b2291e5b200ac8c7c3b92560405160405180910390a45b505b50505f90815260046020526040902080546001600160a01b0319166001600160a01b0392909216919091179055565b5f828152600260205260408120546001600160a01b0390811690831615611068576110688184866112af565b6001600160a01b038116156110a2576110835f855f80610f38565b6001600160a01b0381165f90815260036020526040902080545f190190555b6001600160a01b038516156110d0576001600160a01b0385165f908152600360205260409020805460010190555b5f8481526002602052604080822080546001600160a01b0319166001600160a01b0389811691821790925591518793918516917fddf252ad1be2c89b69c2b068fc378daa952ba7f163c4a11628f55a4df523b3ef91a4949350505050565b61094f848484611313565b61114383836113c0565b6106e6335f858585610d6b565b5f81815260066020526040902080546060919061116c90611a0f565b80601f016020809104026020016040519081016040528092919081815260200182805461119890611a0f565b80156111e35780601f106111ba576101008083540402835291602001916111e3565b820191905f5260205f20905b8154815290600101906020018083116111c657829003601f168201915b50505050509050919050565b60606111fa826109f2565b505f61121060408051602081019091525f815290565b90505f81511161122e5760405180602001604052805f815250611259565b8061123884611421565b604051602001611249929190611cb8565b6040516020818303038152906040525b9392505050565b5f6001600160e01b031982166380ac58cd60e01b148061129057506001600160e01b03198216635b5e139f60e01b145b806103ab57506301ffc9a760e01b6001600160e01b03198316146103ab565b6112ba8383836114b1565b6106e6576001600160a01b0383166112e857604051637e27328960e01b8152600481018290526024016104d5565b60405163177e802f60e01b81526001600160a01b0383166004820152602481018290526044016104d5565b6001600160a01b03821661133c57604051633250574960e11b81525f60048201526024016104d5565b5f61134883835f610a64565b90506001600160a01b03811661137457604051637e27328960e01b8152600481018390526024016104d5565b836001600160a01b0316816001600160a01b0316146105a0576040516364283d7b60e01b81526001600160a01b03808616600483015260248201849052821660448201526064016104d5565b6001600160a01b0382166113e957604051633250574960e11b81525f60048201526024016104d5565b5f6113f583835f610a64565b90506001600160a01b038116156106e6576040516339e3563760e11b81525f60048201526024016104d5565b60605f61142d83611512565b60010190505f8167ffffffffffffffff81111561144c5761144c61172b565b6040519080825280601f01601f191660200182016040528015611476576020820181803683370190505b5090508181016020015b5f19016f181899199a1a9b1b9c1cb0b131b232b360811b600a86061a8153600a850494508461148057509392505050565b5f6001600160a01b03831615801590610f0c5750826001600160a01b0316846001600160a01b031614806114ea57506114ea8484610967565b80610f0c5750505f908152600460205260409020546001600160a01b03908116911614919050565b5f8072184f03e93ff9f4daa797ed6e38ed64bf6a1f0160401b83106115505772184f03e93ff9f4daa797ed6e38ed64bf6a1f0160401b830492506040015b6d04ee2d6d415b85acef8100000000831061157c576d04ee2d6d415b85acef8100000000830492506020015b662386f26fc10000831061159a57662386f26fc10000830492506010015b6305f5e10083106115b2576305f5e100830492506008015b61271083106115c657612710830492506004015b606483106115d8576064830492506002015b600a83106103ab5760010192915050565b6001600160e01b031981168114610716575f80fd5b5f6020828403121561160e575f80fd5b8135611259816115e9565b5f5b8381101561163357818101518382015260200161161b565b50505f910152565b5f8151808452611652816020860160208601611619565b601f01601f19169290920160200192915050565b602081525f611259602083018461163b565b5f60208284031215611688575f80fd5b5035919050565b80356001600160a01b03811681146116a5575f80fd5b919050565b5f80604083850312156116bb575f80fd5b6116c48361168f565b946020939093013593505050565b5f805f606084860312156116e4575f80fd5b6116ed8461168f565b92506116fb6020850161168f565b9150604084013590509250925092565b5f806040838503121561171c575f80fd5b50508035926020909101359150565b634e487b7160e01b5f52604160045260245ffd5b5f67ffffffffffffffff808411156117595761175961172b565b604051601f8501601f19908116603f011681019082821181831017156117815761178161172b565b81604052809350858152868686011115611799575f80fd5b858560208301375f602087830101525050509392505050565b5f82601f8301126117c1575f80fd5b6112598383356020850161173f565b5f805f805f805f805f806101408b8d0312156117ea575f80fd5b8a3567ffffffffffffffff80821115611801575f80fd5b61180d8e838f016117b2565b9b5060208d01359a5060408d0135995060608d0135985060808d0135975060a08d0135965060c08d0135955060e08d013594506101008d0135915080821115611854575f80fd5b506118618d828e016117b2565b9250506118716101208c0161168f565b90509295989b9194979a5092959850565b5f8060408385031215611893575f80fd5b61189c8361168f565b9150602083013567ffffffffffffffff8111156118b7575f80fd5b6118c3858286016117b2565b9150509250929050565b5f805f606084860312156118df575f80fd5b833592506118ef6020850161168f565b915060408401356001600160601b038116811461190a575f80fd5b809150509250925092565b5f60208284031215611925575f80fd5b6112598261168f565b5f806040838503121561193f575f80fd5b6119488361168f565b91506020830135801515811461195c575f80fd5b809150509250929050565b5f805f806080858703121561197a575f80fd5b6119838561168f565b93506119916020860161168f565b925060408501359150606085013567ffffffffffffffff8111156119b3575f80fd5b8501601f810187136119c3575f80fd5b6119d28782356020840161173f565b91505092959194509250565b5f80604083850312156119ef575f80fd5b6119f88361168f565b9150611a066020840161168f565b90509250929050565b600181811c90821680611a2357607f821691505b602082108103611a4157634e487b7160e01b5f52602260045260245ffd5b50919050565b634e487b7160e01b5f52601160045260245ffd5b80820281158282048414176103ab576103ab611a47565b5f82611a8c57634e487b7160e01b5f52601260045260245ffd5b500490565b60208082526028908201527f5469636b6574206973206c6f636b656420666f72206d61726b6574706c616365604082015267206c697374696e6760c01b606082015260800190565b5f8251611aea818460208701611619565b9190910192915050565b5f6101208b83528a60208401528960408401528860608401528760808401528660a08401528560c08401528060e0840152611b318184018661163b565b915050826101008301529a9950505050505050505050565b5f60018201611b5a57611b5a611a47565b5060010190565b601f8211156106e657805f5260205f20601f840160051c81016020851015611b865750805b601f840160051c820191505b81811015610e8c575f8155600101611b92565b815167ffffffffffffffff811115611bbf57611bbf61172b565b611bd381611bcd8454611a0f565b84611b61565b602080601f831160018114611c06575f8415611bef5750858301515b5f19600386901b1c1916600185901b178555610e8a565b5f85815260208120601f198616915b82811015611c3457888601518255948401946001909101908401611c15565b5085821015611c5157878501515f19600388901b60f8161c191681555b5050505050600190811b01905550565b6001600160a01b03858116825284166020820152604081018390526080606082018190525f90611c939083018461163b565b9695505050505050565b5f60208284031215611cad575f80fd5b8151611259816115e9565b5f8351611cc9818460208801611619565b835190830190611cdd818360208801611619565b0194935050505056fea264697066735822122059d8bb907d7e489aca5c300a659e94d4a6bf067f813342a5412fbf103e95d00d64736f6c63430008180033",
  "linkReferences": {},
  "deployedLinkReferences": {}
}