{
  "_format": "hh-sol-artifact-1",
  "contractName": "BASTicketNFT",
  "sourceName": "contracts/BASTicketNFT.sol",
  "abi": [
    {
      "inputs": [
        {
          "internalType": "address",
          "name": "initialOwner",
          "type": "address"
        }
      ],
      "stateMutability": "nonpayable",
      "type": "constructor"
    },
    {
      "inputs": [
        {
          "internalType": "uint256",
          "name": "numerator",
          "type": "uint256"
        },
        {
          "internalType": "uint256",
          "name": "denominator",
          "type": "uint256"
        }
      ],
      "name": "ERC2981InvalidDefaultRoyalty",
      "type": "error"
    },
    {
      "inputs": [
        {
          "internalType": "address",
          "name": "receiver",
          "type": "address"
        }
      ],
      "name": "ERC2981InvalidDefaultRoyaltyReceiver",
      "type": "error"
    },
    {
      "inputs": [
        {
          "internalType": "uint256",
          "name": "tokenId",
          "type": "uint256"
        },
        {
          "internalType": "uint256",
          "name": "numerator",
          "type": "uint256"
        },
        {
          "internalType": "uint256",
          "name": "denominator",
          "type": "uint256"
        }
      ],
      "name": "ERC2981InvalidTokenRoyalty",
      "type": "error"
    },
    {
      "inputs": [
        {
          "internalType": "uint256",
          "name": "tokenId",
          "type": "uint256"
        },
        {
          "internalType": "address",
          "name": "receiver",
          "type": "address"
        }
      ],
      "name": "ERC2981InvalidTokenRoyaltyReceiver",
      "type": "error"
    },
    {
      "inputs": [
        {
          "internalType": "address",
          "name": "sender",
          "type": "address"
        },
        {
          "internalType": "uint256",
          "name": "tokenId",
          "type": "uint256"
        },
        {
          "internalType": "address",
          "name": "owner",
          "type": "address"
        }
      ],
      "name": "ERC721IncorrectOwner",
      "type": "error"
    },
    {
      "inputs": [
        {
          "internalType": "address",
          "name": "operator",
          "type": "address"
        },
        {
          "internalType": "uint256",
          "name": "tokenId",
          "type": "uint256"
        }
      ],
      "name": "ERC721InsufficientApproval",
      "type": "error"
    },
    {
      "inputs": [
        {
          "internalType": "address",
          "name": "approver",
          "type": "address"
        }
      ],
      "name": "ERC721InvalidApprover",
      "type": "error"
    },
    {
      "inputs": [
        {
          "internalType": "address",
          "name": "operator",
          "type": "address"
        }
      ],
      "name": "ERC721InvalidOperator",
      "type": "error"
    },
    {
      "inputs": [
        {
          "internalType": "address",
          "name": "owner",
          "type": "address"
        }
      ],
      "name": "ERC721InvalidOwner",
      "type": "error"
    },
    {
      "inputs": [
        {
          "internalType": "address",
          "name": "receiver",
          "type": "address"
        }
      ],
      "name": "ERC721InvalidReceiver",
      "type": "error"
    },
    {
      "inputs": [
        {
          "internalType": "address",
          "name": "sender",
          "type": "address"
        }
      ],
      "name": "ERC721InvalidSender",
      "type": "error"
    },
    {
      "inputs": [
        {
          "internalType": "uint256",
          "name": "tokenId",
          "type": "uint256"
        }
      ],
      "name": "ERC721NonexistentToken",
      "type": "error"
    },
    {
      "inputs": [
        {
          "internalType": "address",
          "name": "owner",
          "type": "address"
        }
      ],
      "name": "OwnableInvalidOwner",
      "type": "error"
    },
    {
      "inputs": [
        {
          "internalType": "address",
          "name": "account",
          "type": "address"
        }
      ],
      "name": "OwnableUnauthorizedAccount",
      "type": "error"
    },
    {
      "anonymous": false,
      "inputs": [
        {
          "indexed": true,
          "internalType": "address",
          "name": "owner",
          "type": "address"
        },
        {
          "indexed": true,
          "internalType": "address",
          "name": "approved",
          "type": "address"
        },
        {
          "indexed": true,
          "internalType": "uint256",
          "name": "tokenId",
          "type": "uint256"
        }
      ],
      "name": "Approval",
      "type": "event"
    },
    {
      "anonymous": false,
      "inputs": [
        {
          "indexed": true,
          "internalType": "address",
          "name": "owner",
          "type": "address"
        },
        {
          "indexed": true,
          "internalType": "address",
          "name": "operator",
          "type": "address"
        },
        {
          "indexed": false,
          "internalType": "bool",
          "name": "approved",
          "type": "bool"
        }
      ],
      "name": "ApprovalForAll",
      "type": "event"
    },
    {
      "anonymous": false,
      "inputs": [
        {
          "indexed": false,
          "internalType": "uint256",
          "name": "_fromTokenId",
          "type": "uint256"
        },
        {
          "indexed": false,
          "internalType": "uint256",
          "name": "_toTokenId",
          "type": "uint256"
        }
      ],
      "name": "BatchMetadataUpdate",
      "type": "event"
    },
    {
      "anonymous": false,
      "inputs": [
        {
          "indexed": false,
          "internalType": "uint256",
          "name": "_tokenId",
          "type": "uint256"
        }
      ],
      "name": "MetadataUpdate",
      "type": "event"
    },
    {
      "anonymous": false,
      "inputs": [
        {
          "indexed": true,
          "internalType": "address",
          "name": "previousOwner",
          "type": "address"
        },
        {
          "indexed": true,
          "internalType": "address",
          "name": "newOwner",
          "type": "address"
        }
      ],
      "name": "OwnershipTransferred",
      "type": "event"
    },
    {
      "anonymous": false,
      "inputs": [
        {
          "indexed": true,
          "internalType": "uint256",
          "name": "tokenId",
          "type": "uint256"
        }
      ],
      "name": "TicketLocked",
      "type": "event"
    },
    {
      "anonymous": false,
      "inputs": [
        {
          "indexed": true,
          "internalType": "address",
          "name": "to",
          "type": "address"
        },
        {
          "indexed": true,
          "internalType": "uint256",
          "name": "tokenId",
          "type": "uint256"
        },
        {
          "indexed": false,
          "internalType": "string",
          "name": "uri",
          "type": "string"
        }
      ],
      "name": "TicketMinted",
      "type": "event"
    },
    {
      "anonymous": false,
      "inputs": [
        {
          "indexed": true,
          "internalType": "uint256",
          "name": "tokenId",
          "type": "uint256"
        }
      ],
      "name": "TicketUnlocked",
      "type": "event"
    },
    {
      "anonymous": false,
      "inputs": [
        {
          "indexed": true,
          "internalType": "address",
          "name": "from",
          "type": "address"
        },
        {
          "indexed": true,
          "internalType": "address",
          "name": "to",
          "type": "address"
        },
        {
          "indexed": true,
          "internalType": "uint256",
          "name": "tokenId",
          "type": "uint256"
        }
      ],
      "name": "Transfer",
      "type": "event"
    },
    {
      "inputs": [
        {
          "internalType": "address",
          "name": "to",
          "type": "address"
        },
        {
          "internalType": "uint256",
          "name": "tokenId",
          "type": "uint256"
        }
      ],
      "name": "approve",
      "outputs": [],
      "stateMutability": "nonpayable",
      "type": "function"
    },
    {
      "inputs": [
        {
          "internalType": "address",
          "name": "owner",
          "type": "address"
        }
      ],
      "name": "balanceOf",
      "outputs": [
        {
          "internalType": "uint256",
          "name": "",
          "type": "uint256"
        }
      ],
      "stateMutability": "view",
      "type": "function"
    },
    {
      "inputs": [
        {
          "internalType": "uint256",
          "name": "tokenId",
          "type": "uint256"
        }
      ],
      "name": "burn",
      "outputs": [],
      "stateMutability": "nonpayable",
      "type": "function"
    },
    {
      "inputs": [
        {
          "internalType": "uint256",
          "name": "tokenId",
          "type": "uint256"
        }
      ],
      "name": "getApproved",
      "outputs": [
        {
          "internalType": "address",
          "name": "",
          "type": "address"
        }
      ],
      "stateMutability": "view",
      "type": "function"
    },
    {
      "inputs": [
        {
          "internalType": "address",
          "name": "owner",
          "type": "address"
        },
        {
          "internalType": "address",
          "name": "operator",
          "type": "address"
        }
      ],
      "name": "isApprovedForAll",
      "outputs": [
        {
          "internalType": "bool",
          "name": "",
          "type": "bool"
        }
      ],
      "stateMutability": "view",
      "type": "function"
    },
    {
      "inputs": [
        {
          "internalType": "uint256",
          "name": "",
          "type": "uint256"
        }
      ],
      "name": "isLocked",
      "outputs": [
        {
          "internalType": "bool",
          "name": "",
          "type": "bool"
        }
      ],
      "stateMutability": "view",
      "type": "function"
    },
    {
      "inputs": [
        {
          "internalType": "uint256",
          "name": "tokenId",
          "type": "uint256"
        }
      ],
      "name": "lockTicket",
      "outputs": [],
      "stateMutability": "nonpayable",
      "type": "function"
    },
    {
      "inputs": [
        {
          "internalType": "address",
          "name": "to",
          "type": "address"
        },
        {
          "internalType": "string",
          "name": "uri",
          "type": "string"
        }
      ],
      "name": "mintTicket",
      "outputs": [
        {
          "internalType": "uint256",
          "name": "",
          "type": "uint256"
        }
      ],
      "stateMutability": "nonpayable",
      "type": "function"
    },
    {
      "inputs": [],
      "name": "name",
      "outputs": [
        {
          "internalType": "string",
          "name": "",
          "type": "string"
        }
      ],
      "stateMutability": "view",
      "type": "function"
    },
    {
      "inputs": [],
      "name": "owner",
      "outputs": [
        {
          "internalType": "address",
          "name": "",
          "type": "address"
        }
      ],
      "stateMutability": "view",
      "type": "function"
    },
    {
      "inputs": [
        {
          "internalType": "uint256",
          "name": "tokenId",
          "type": "uint256"
        }
      ],
      "name": "ownerOf",
      "outputs": [
        {
          "internalType": "address",
          "name": "",
          "type": "address"
        }
      ],
      "stateMutability": "view",
      "type": "function"
    },
    {
      "inputs": [],
      "name": "renounceOwnership",
      "outputs": [],
      "stateMutability": "nonpayable",
      "type": "function"
    },
    {
      "inputs": [
        {
          "internalType": "uint256",
          "name": "tokenId",
          "type": "uint256"
        },
        {
          "internalType": "uint256",
          "name": "salePrice",
          "type": "uint256"
        }
      ],
      "name": "royaltyInfo",
      "outputs": [
        {
          "internalType": "address",
          "name": "receiver",
          "type": "address"
        },
        {
          "internalType": "uint256",
          "name": "amount",
          "type": "uint256"
        }
      ],
      "stateMutability": "view",
      "type": "function"
    },
    {
      "inputs": [
        {
          "internalType": "address",
          "name": "from",
          "type": "address"
        },
        {
          "internalType": "address",
          "name": "to",
          "type": "address"
        },
        {
          "internalType": "uint256",
          "name": "tokenId",
          "type": "uint256"
        }
      ],
      "name": "safeTransferFrom",
      "outputs": [],
      "stateMutability": "nonpayable",
      "type": "function"
    },
    {
      "inputs": [
        {
          "internalType": "address",
          "name": "from",
          "type": "address"
        },
        {
          "internalType": "address",
          "name": "to",
          "type": "address"
        },
        {
          "internalType": "uint256",
          "name": "tokenId",
          "type": "uint256"
        },
        {
          "internalType": "bytes",
          "name": "data",
          "type": "bytes"
        }
      ],
      "name": "safeTransferFrom",
      "outputs": [],
      "stateMutability": "nonpayable",
      "type": "function"
    },
    {
      "inputs": [
        {
          "internalType": "address",
          "name": "operator",
          "type": "address"
        },
        {
          "internalType": "bool",
          "name": "approved",
          "type": "bool"
        }
      ],
      "name": "setApprovalForAll",
      "outputs": [],
      "stateMutability": "nonpayable",
      "type": "function"
    },
    {
      "inputs": [
        {
          "internalType": "uint256",
          "name": "tokenId",
          "type": "uint256"
        },
        {
          "internalType": "address",
          "name": "receiver",
          "type": "address"
        },
        {
          "internalType": "uint96",
          "name": "feeNumerator",
          "type": "uint96"
        }
      ],
      "name": "setTokenRoyalty",
      "outputs": [],
      "stateMutability": "nonpayable",
      "type": "function"
    },
    {
      "inputs": [
        {
          "internalType": "bytes4",
          "name": "interfaceId",
          "type": "bytes4"
        }
      ],
      "name": "supportsInterface",
      "outputs": [
        {
          "internalType": "bool",
          "name": "",
          "type": "bool"
        }
      ],
      "stateMutability": "view",
      "type": "function"
    },
    {
      "inputs": [],
      "name": "symbol",
      "outputs": [
        {
          "internalType": "string",
          "name": "",
          "type": "string"
        }
      ],
      "stateMutability": "view",
      "type": "function"
    },
    {
      "inputs": [
        {
          "internalType": "uint256",
          "name": "tokenId",
          "type": "uint256"
        }
      ],
      "name": "tokenURI",
      "outputs": [
        {
          "internalType": "string",
          "name": "",
          "type": "string"
        }
      ],
      "stateMutability": "view",
      "type": "function"
    },
    {
      "inputs": [
        {
          "internalType": "address",
          "name": "from",
          "type": "address"
        },
        {
          "internalType": "address",
          "name": "to",
          "type": "address"
        },
        {
          "internalType": "uint256",
          "name": "tokenId",
          "type": "uint256"
        }
      ],
      "name": "transferFrom",
      "outputs": [],
      "stateMutability": "nonpayable",
      "type": "function"
    },
    {
      "inputs": [
        {
          "internalType": "address",
          "name": "newOwner",
          "type": "address"
        }
      ],
      "name": "transferOwnership",
      "outputs": [],
      "stateMutability": "nonpayable",
      "type": "function"
    },
    {
      "inputs": [
        {
          "internalType": "uint256",
          "name": "tokenId",
          "type": "uint256"
        }
      ],
      "name": "unlockTicket",
      "outputs": [],
      "stateMutability": "nonpayable",
      "type": "function"
    }
  ],
  "bytecode": "0x608060405234801562000010575f80fd5b5060405162001d1738038062001d178339810160408190526200003391620001dd565b806040518060400160405280600a815260200169109054c8151a58dad95d60b21b81525060405180604001604052806004815260200163109054d560e21b815250815f9081620000849190620002aa565b506001620000938282620002aa565b5050506001600160a01b038116620000c557604051631e4fbdf760e01b81525f60048201526024015b60405180910390fd5b620000d081620000e6565b50620000df816101f462000137565b5062000376565b600980546001600160a01b038381166001600160a01b0319831681179093556040519116919082907f8be0079c531659141344cd1fd0a4f28419497f9722a3daafe3b4186f6b6457e0905f90a35050565b6127106001600160601b0382168110156200017857604051636f483d0960e01b81526001600160601b038316600482015260248101829052604401620000bc565b6001600160a01b038316620001a357604051635b6cc80560e11b81525f6004820152602401620000bc565b50604080518082019091526001600160a01b039092168083526001600160601b039091166020909201829052600160a01b90910217600755565b5f60208284031215620001ee575f80fd5b81516001600160a01b038116811462000205575f80fd5b9392505050565b634e487b7160e01b5f52604160045260245ffd5b600181811c908216806200023557607f821691505b6020821081036200025457634e487b7160e01b5f52602260045260245ffd5b50919050565b601f821115620002a557805f5260205f20601f840160051c81016020851015620002815750805b601f840160051c820191505b81811015620002a2575f81556001016200028d565b50505b505050565b81516001600160401b03811115620002c657620002c66200020c565b620002de81620002d7845462000220565b846200025a565b602080601f83116001811462000314575f8415620002fc5750858301515b5f19600386901b1c1916600185901b1785556200036e565b5f85815260208120601f198616915b82811015620003445788860151825594840194600190910190840162000323565b50858210156200036257878501515f19600388901b60f8161c191681555b505060018460011b0185555b505050505050565b61199380620003845f395ff3fe608060405234801561000f575f80fd5b5060043610610148575f3560e01c80636352211e116100bf578063a22cb46511610079578063a22cb465146102d5578063b88d4fde146102e8578063c87b56dd146102fb578063e985e9c51461030e578063f2fde38b14610321578063f6aacfb114610334575f80fd5b80636352211e1461027b57806370a082311461028e578063715018a6146102a157806371e20902146102a95780638da5cb5b146102bc57806395d89b41146102cd575f80fd5b806323b872dd1161011057806323b872dd146101dc5780632a55205a146101ef57806342842e0e1461022157806342966c68146102345780635388842c146102475780635944c75314610268575f80fd5b806301ffc9a71461014c57806306fdde0314610174578063081812fc14610189578063095ea7b3146101b457806310bcbec7146101c9575b5f80fd5b61015f61015a3660046113ea565b610356565b60405190151581526020015b60405180910390f35b61017c610366565b60405161016b9190611452565b61019c610197366004611464565b6103f5565b6040516001600160a01b03909116815260200161016b565b6101c76101c2366004611496565b61041c565b005b6101c76101d7366004611464565b61042b565b6101c76101ea3660046114be565b6104d2565b6102026101fd3660046114f7565b61055b565b604080516001600160a01b03909316835260208301919091520161016b565b6101c761022f3660046114be565b6105de565b6101c7610242366004611464565b6105fd565b61025a61025536600461159e565b610611565b60405190815260200161016b565b6101c76102763660046115fc565b61068d565b61019c610289366004611464565b6106a0565b61025a61029c366004611644565b6106aa565b6101c76106ef565b6101c76102b7366004611464565b610702565b6009546001600160a01b031661019c565b61017c6107a7565b6101c76102e336600461165d565b6107b6565b6101c76102f6366004611696565b6107c1565b61017c610309366004611464565b6107d9565b61015f61031c36600461170d565b6107e4565b6101c761032f366004611644565b610811565b61015f610342366004611464565b600b6020525f908152604090205460ff1681565b5f6103608261084b565b92915050565b60605f80546103749061173e565b80601f01602080910402602001604051908101604052809291908181526020018280546103a09061173e565b80156103eb5780601f106103c2576101008083540402835291602001916103eb565b820191905f5260205f20905b8154815290600101906020018083116103ce57829003601f168201915b5050505050905090565b5f6103ff8261086f565b505f828152600460205260409020546001600160a01b0316610360565b6104278282336108a7565b5050565b6104336108b4565b5f818152600260205260409020546001600160a01b03166104935760405162461bcd60e51b8152602060048201526015602482015274151a58dad95d08191bd95cc81b9bdd08195e1a5cdd605a1b60448201526064015b60405180910390fd5b5f818152600b6020526040808220805460ff191690555182917f2c0c680ae904e095d6fc75bb8dc3619de3a3a52d161df3cc92cbce36225f489e91a250565b6001600160a01b0382166104fb57604051633250574960e11b81525f600482015260240161048a565b5f6105078383336108e1565b9050836001600160a01b0316816001600160a01b031614610555576040516364283d7b60e01b81526001600160a01b038086166004830152602482018490528216604482015260640161048a565b50505050565b5f82815260086020526040812080548291906001600160a01b03811690600160a01b90046001600160601b0316816105ae5750506007546001600160a01b03811690600160a01b90046001600160601b03165b5f6127106105c56001600160601b0384168961178a565b6105cf91906117a1565b92989297509195505050505050565b6105f883838360405180602001604052805f8152506107c1565b505050565b6106056108b4565b61060e81610997565b50565b5f61061a6108b4565b600a80545f918261062a836117c0565b91905055905061063a84826109cf565b61064481846109e8565b80846001600160a01b03167ff16f1e8b680ea7f1e8a1f849eb82762cba60ddcef854d36909e3173483281c8c8560405161067e9190611452565b60405180910390a39392505050565b6106956108b4565b6105f8838383610a37565b5f6103608261086f565b5f6001600160a01b0382166106d4576040516322718ad960e21b81525f600482015260240161048a565b506001600160a01b03165f9081526003602052604090205490565b6106f76108b4565b6107005f610af7565b565b61070a6108b4565b5f818152600260205260409020546001600160a01b03166107655760405162461bcd60e51b8152602060048201526015602482015274151a58dad95d08191bd95cc81b9bdd08195e1a5cdd605a1b604482015260640161048a565b5f818152600b6020526040808220805460ff191660011790555182917f34307a3f5fca60843fdf0d44a7fe1daa84960c21ce84e4d1ecae51d9114cac5991a250565b6060600180546103749061173e565b610427338383610b48565b6107cc8484846104d2565b6105553385858585610c0f565b606061036082610d37565b6001600160a01b039182165f90815260056020908152604080832093909416825291909152205460ff1690565b6108196108b4565b6001600160a01b03811661084257604051631e4fbdf760e01b81525f600482015260240161048a565b61060e81610af7565b5f6001600160e01b0319821663152a902d60e11b1480610360575061036082610db8565b5f818152600260205260408120546001600160a01b03168061036057604051637e27328960e01b81526004810184905260240161048a565b6105f88383836001610ddc565b6009546001600160a01b031633146107005760405163118cdaa760e01b815233600482015260240161048a565b5f828152600260205260408120546001600160a01b0316801580159061090f57506001600160a01b03851615155b15610983575f848152600b602052604090205460ff16156109835760405162461bcd60e51b815260206004820152602860248201527f5469636b6574206973206c6f636b656420666f72206d61726b6574706c616365604482015267206c697374696e6760c01b606482015260840161048a565b61098e858585610ee0565b95945050505050565b5f6109a35f835f6108e1565b90506001600160a01b03811661042757604051637e27328960e01b81526004810183905260240161048a565b610427828260405180602001604052805f815250610fd2565b5f8281526006602052604090206109ff828261181c565b506040518281527ff8e1a15aba9398e019f0b49df1a4fde98ee17ae345cb5f6b5e2c27f5033e8ce79060200160405180910390a15050565b6127106001600160601b038216811015610a7d5760405163dfd1fc1b60e01b8152600481018590526001600160601b03831660248201526044810182905260640161048a565b6001600160a01b038316610aad57604051634b4f842960e11b8152600481018590525f602482015260440161048a565b506040805180820182526001600160a01b0393841681526001600160601b0392831660208083019182525f968752600890529190942093519051909116600160a01b029116179055565b600980546001600160a01b038381166001600160a01b0319831681179093556040519116919082907f8be0079c531659141344cd1fd0a4f28419497f9722a3daafe3b4186f6b6457e0905f90a35050565b6001600160a01b038316610b715760405163a9fbf51f60e01b81525f600482015260240161048a565b6001600160a01b038216610ba357604051630b61174360e31b81526001600160a01b038316600482015260240161048a565b6001600160a01b038381165f81815260056020908152604080832094871680845294825291829020805460ff191686151590811790915591519182527f17307eab39ab6107e8899845ad3d59bd9653f200f220920489ca2b5937696c31910160405180910390a3505050565b6001600160a01b0383163b15610d3057604051630a85bd0160e11b81526001600160a01b0384169063150b7a0290610c519088908890879087906004016118d8565b6020604051808303815f875af1925050508015610c8b575060408051601f3d908101601f19168201909252610c8891810190611914565b60015b610cf2573d808015610cb8576040519150601f19603f3d011682016040523d82523d5f602084013e610cbd565b606091505b5080515f03610cea57604051633250574960e11b81526001600160a01b038516600482015260240161048a565b805160208201fd5b6001600160e01b03198116630a85bd0160e11b14610d2e57604051633250574960e11b81526001600160a01b038516600482015260240161048a565b505b5050505050565b6060610d428261086f565b505f610d5860408051602081019091525f815290565b90505f610d6484610fe9565b905081515f03610d75579392505050565b805115610da7578181604051602001610d8f92919061192f565b60405160208183030381529060405292505050919050565b610db084611088565b949350505050565b5f6001600160e01b03198216632483248360e11b14806103605750610360826110f9565b8080610df057506001600160a01b03821615155b15610eb1575f610dff8461086f565b90506001600160a01b03831615801590610e2b5750826001600160a01b0316816001600160a01b031614155b8015610e3e5750610e3c81846107e4565b155b15610e675760405163a9fbf51f60e01b81526001600160a01b038416600482015260240161048a565b8115610eaf5783856001600160a01b0316826001600160a01b03167f8c5be1e5ebec7d5bd14f71427d1e84f3dd0314c0f7b2291e5b200ac8c7c3b92560405160405180910390a45b505b50505f90815260046020526040902080546001600160a01b0319166001600160a01b0392909216919091179055565b5f828152600260205260408120546001600160a01b0390811690831615610f0c57610f0c818486611148565b6001600160a01b03811615610f4657610f275f855f80610ddc565b6001600160a01b0381165f90815260036020526040902080545f190190555b6001600160a01b03851615610f74576001600160a01b0385165f908152600360205260409020805460010190555b5f8481526002602052604080822080546001600160a01b0319166001600160a01b0389811691821790925591518793918516917fddf252ad1be2c89b69c2b068fc378daa952ba7f163c4a11628f55a4df523b3ef91a4949350505050565b610fdc83836111ac565b6105f8335f858585610c0f565b5f8181526006602052604090208054606091906110059061173e565b80601f01602080910402602001604051908101604052809291908181526020018280546110319061173e565b801561107c5780601f106110535761010080835404028352916020019161107c565b820191905f5260205f20905b81548152906001019060200180831161105f57829003601f168201915b50505050509050919050565b60606110938261086f565b505f6110a960408051602081019091525f815290565b90505f8151116110c75760405180602001604052805f8152506110f2565b806110d18461120d565b6040516020016110e292919061192f565b6040516020818303038152906040525b9392505050565b5f6001600160e01b031982166380ac58cd60e01b148061112957506001600160e01b03198216635b5e139f60e01b145b8061036057506301ffc9a760e01b6001600160e01b0319831614610360565b61115383838361129d565b6105f8576001600160a01b03831661118157604051637e27328960e01b81526004810182905260240161048a565b60405163177e802f60e01b81526001600160a01b03831660048201526024810182905260440161048a565b6001600160a01b0382166111d557604051633250574960e11b81525f600482015260240161048a565b5f6111e183835f6108e1565b90506001600160a01b038116156105f8576040516339e3563760e11b81525f600482015260240161048a565b60605f611219836112fe565b60010190505f8167ffffffffffffffff81111561123857611238611517565b6040519080825280601f01601f191660200182016040528015611262576020820181803683370190505b5090508181016020015b5f19016f181899199a1a9b1b9c1cb0b131b232b360811b600a86061a8153600a850494508461126c57509392505050565b5f6001600160a01b03831615801590610db05750826001600160a01b0316846001600160a01b031614806112d657506112d684846107e4565b80610db05750505f908152600460205260409020546001600160a01b03908116911614919050565b5f8072184f03e93ff9f4daa797ed6e38ed64bf6a1f0160401b831061133c5772184f03e93ff9f4daa797ed6e38ed64bf6a1f0160401b830492506040015b6d04ee2d6d415b85acef81000000008310611368576d04ee2d6d415b85acef8100000000830492506020015b662386f26fc10000831061138657662386f26fc10000830492506010015b6305f5e100831061139e576305f5e100830492506008015b61271083106113b257612710830492506004015b606483106113c4576064830492506002015b600a83106103605760010192915050565b6001600160e01b03198116811461060e575f80fd5b5f602082840312156113fa575f80fd5b81356110f2816113d5565b5f5b8381101561141f578181015183820152602001611407565b50505f910152565b5f815180845261143e816020860160208601611405565b601f01601f19169290920160200192915050565b602081525f6110f26020830184611427565b5f60208284031215611474575f80fd5b5035919050565b80356001600160a01b0381168114611491575f80fd5b919050565b5f80604083850312156114a7575f80fd5b6114b08361147b565b946020939093013593505050565b5f805f606084860312156114d0575f80fd5b6114d98461147b565b92506114e76020850161147b565b9150604084013590509250925092565b5f8060408385031215611508575f80fd5b50508035926020909101359150565b634e487b7160e01b5f52604160045260245ffd5b5f67ffffffffffffffff8084111561154557611545611517565b604051601f8501601f19908116603f0116810190828211818310171561156d5761156d611517565b81604052809350858152868686011115611585575f80fd5b858560208301375f602087830101525050509392505050565b5f80604083850312156115af575f80fd5b6115b88361147b565b9150602083013567ffffffffffffffff8111156115d3575f80fd5b8301601f810185136115e3575f80fd5b6115f28582356020840161152b565b9150509250929050565b5f805f6060848603121561160e575f80fd5b8335925061161e6020850161147b565b915060408401356001600160601b0381168114611639575f80fd5b809150509250925092565b5f60208284031215611654575f80fd5b6110f28261147b565b5f806040838503121561166e575f80fd5b6116778361147b565b91506020830135801515811461168b575f80fd5b809150509250929050565b5f805f80608085870312156116a9575f80fd5b6116b28561147b565b93506116c06020860161147b565b925060408501359150606085013567ffffffffffffffff8111156116e2575f80fd5b8501601f810187136116f2575f80fd5b6117018782356020840161152b565b91505092959194509250565b5f806040838503121561171e575f80fd5b6117278361147b565b91506117356020840161147b565b90509250929050565b600181811c9082168061175257607f821691505b60208210810361177057634e487b7160e01b5f52602260045260245ffd5b50919050565b634e487b7160e01b5f52601160045260245ffd5b808202811582820484141761036057610360611776565b5f826117bb57634e487b7160e01b5f52601260045260245ffd5b500490565b5f600182016117d1576117d1611776565b5060010190565b601f8211156105f857805f5260205f20601f840160051c810160208510156117fd5750805b601f840160051c820191505b81811015610d30575f8155600101611809565b815167ffffffffffffffff81111561183657611836611517565b61184a81611844845461173e565b846117d8565b602080601f83116001811461187d575f84156118665750858301515b5f19600386901b1c1916600185901b178555610d2e565b5f85815260208120601f198616915b828110156118ab5788860151825594840194600190910190840161188c565b50858210156118c857878501515f19600388901b60f8161c191681555b5050505050600190811b01905550565b6001600160a01b03858116825284166020820152604081018390526080606082018190525f9061190a90830184611427565b9695505050505050565b5f60208284031215611924575f80fd5b81516110f2816113d5565b5f8351611940818460208801611405565b835190830190611954818360208801611405565b0194935050505056fea2646970667358221220e094c68f51ba5036763656da3003991d8d11d25ea2442362ee1182c52772c32a64736f6c63430008180033",
  "linkReferences": {},
  "deployedLinkReferences": {}
}