{
  "_format": "hh-sol-artifact-1",
  "contractName": "BASTicketNFT",
  "sourceName": "contracts/BASTicketNFT.sol",
  "abi": [
    {
      "inputs": [
        {
          "internalType": "address",
          "name": "initialOwner",
          "type": "address"
        }
      ],
      "stateMutability": "nonpayable",
      "type": "constructor"
    },
    {
      "inputs": [
        {
          "internalType": "uint256",
          "name": "numerator",
          "type": "uint256"
        },
        {
          "internalType": "uint256",
          "name": "denominator",
          "type": "uint256"
        }
      ],
      "name": "ERC2981InvalidDefaultRoyalty",
      "type": "error"
    },
    {
      "inputs": [
        {
          "internalType": "address",
          "name": "receiver",
          "type": "address"
        }
      ],
      "name": "ERC2981InvalidDefaultRoyaltyReceiver",
      "type": "error"
    },
    {
      "inputs": [
        {
          "internalType": "uint256",
          "name": "tokenId",
          "type": "uint256"
        },
        {
          "internalType": "uint256",
          "name": "numerator",
          "type": "uint256"
        },
        {
          "internalType": "uint256",
          "name": "denominator",
          "type": "uint256"
        }
      ],
      "name": "ERC2981InvalidTokenRoyalty",
      "type": "error"
    },
    {
      "inputs": [
        {
          "internalType": "uint256",
          "name": "tokenId",
          "type": "uint256"
        },
        {
          "internalType": "address",
          "name": "receiver",
          "type": "address"
        }
      ],
      "name": "ERC2981InvalidTokenRoyaltyReceiver",
      "type": "error"
    },
    {
      "inputs": [
        {
          "internalType": "address",
          "name": "sender",
          "type": "address"
        },
        {
          "internalType": "uint256",
          "name": "tokenId",
          "type": "uint256"
        },
        {
          "internalType": "address",
          "name": "owner",
          "type": "address"
        }
      ],
      "name": "ERC721IncorrectOwner",
      "type": "error"
    },
    {
      "inputs": [
        {
          "internalType": "address",
          "name": "operator",
          "type": "address"
        },
        {
          "internalType": "uint256",
          "name": "tokenId",
          "type": "uint256"
        }
      ],
      "name": "ERC721InsufficientApproval",
      "type": "error"
    },
    {
      "inputs": [
        {
          "internalType": "address",
          "name": "approver",
          "type": "address"
        }
      ],
      "name": "ERC721InvalidApprover",
      "type": "error"
    },
    {
      "inputs": [
        {
          "internalType": "address",
          "name": "operator",
          "type": "address"
        }
      ],
      "name": "ERC721InvalidOperator",
      "type": "error"
    },
    {
      "inputs": [
        {
          "internalType": "address",
          "name": "owner",
          "type": "address"
        }
      ],
      "name": "ERC721InvalidOwner",
      "type": "error"
    },
    {
      "inputs": [
        {
          "internalType": "address",
          "name": "receiver",
          "type": "address"
        }
      ],
      "name": "ERC721InvalidReceiver",
      "type": "error"
    },
    {
      "inputs": [
        {
          "internalType": "address",
          "name": "sender",
          "type": "address"
        }
      ],
      "name": "ERC721InvalidSender",
      "type": "error"
    },
    {
      "inputs": [
        {
          "internalType": "uint256",
          "name": "tokenId",
          "type": "uint256"
        }
      ],
      "name": "ERC721NonexistentToken",
      "type": "error"
    },
    {
      "inputs": [
        {
          "internalType": "address",
          "name": "owner",
          "type": "address"
        }
      ],
      "name": "OwnableInvalidOwner",
      "type": "error"
    },
    {
      "inputs": [
        {
          "internalType": "address",
          "name": "account",
          "type": "address"
        }
      ],
      "name": "OwnableUnauthorizedAccount",
      "type": "error"
    },
    {
      "anonymous": false,
      "inputs": [
        {
          "indexed": true,
          "internalType": "address",
          "name": "owner",
          "type": "address"
        },
        {
          "indexed": true,
          "internalType": "address",
          "name": "approved",
          "type": "address"
        },
        {
          "indexed": true,
          "internalType": "uint256",
          "name": "tokenId",
          "type": "uint256"
        }
      ],
      "name": "Approval",
      "type": "event"
    },
    {
      "anonymous": false,
      "inputs": [
        {
          "indexed": true,
          "internalType": "address",
          "name": "owner",
          "type": "address"
        },
        {
          "indexed": true,
          "internalType": "address",
          "name": "operator",
          "type": "address"
        },
        {
          "indexed": false,
          "internalType": "bool",
          "name": "approved",
          "type": "bool"
        }
      ],
      "name": "ApprovalForAll",
      "type": "event"
    },
    {
      "anonymous": false,
      "inputs": [
        {
          "indexed": false,
          "internalType": "uint256",
          "name": "_fromTokenId",
          "type": "uint256"
        },
        {
          "indexed": false,
          "internalType": "uint256",
          "name": "_toTokenId",
          "type": "uint256"
        }
      ],
      "name": "BatchMetadataUpdate",
      "type": "event"
    },
    {
      "anonymous": false,
      "inputs": [
        {
          "indexed": false,
          "internalType": "uint256",
          "name": "_tokenId",
          "type": "uint256"
        }
      ],
      "name": "MetadataUpdate",
      "type": "event"
    },
    {
      "anonymous": false,
      "inputs": [
        {
          "indexed": true,
          "internalType": "address",
          "name": "previousOwner",
          "type": "address"
        },
        {
          "indexed": true,
          "internalType": "address",
          "name": "newOwner",
          "type": "address"
        }
      ],
      "name": "OwnershipTransferred",
      "type": "event"
    },
    {
      "anonymous": false,
      "inputs": [
        {
          "indexed": true,
          "internalType": "uint256",
          "name": "tokenId",
          "type": "uint256"
        }
      ],
      "name": "TicketLocked",
      "type": "event"
    },
    {
      "anonymous": false,
      "inputs": [
        {
          "indexed": true,
          "internalType": "address",
          "name": "to",
          "type": "address"
        },
        {
          "indexed": true,
          "internalType": "uint256",
          "name": "tokenId",
          "type": "uint256"
        },
        {
          "indexed": false,
          "internalType": "string",
          "name": "uri",
          "type": "string"
        }
      ],
      "name": "TicketMinted",
      "type": "event"
    },
    {
      "anonymous": false,
      "inputs": [
        {
          "indexed": true,
          "internalType": "uint256",
          "name": "tokenId",
          "type": "uint256"
        }
      ],
      "name": "TicketUnlocked",
      "type": "event"
    },
    {
      "anonymous": false,
      "inputs": [
        {
          "indexed": true,
          "internalType": "address",
          "name": "from",
          "type": "address"
        },
        {
          "indexed": true,
          "internalType": "address",
          "name": "to",
          "type": "address"
        },
        {
          "indexed": true,
          "internalType": "uint256",
          "name": "tokenId",
          "type": "uint256"
        }
      ],
      "name": "Transfer",
      "type": "event"
    },
    {
      "inputs": [
        {
          "internalType": "address",
          "name": "to",
          "type": "address"
        },
        {
          "internalType": "uint256",
          "name": "tokenId",
          "type": "uint256"
        }
      ],
      "name": "approve",
      "outputs": [],
      "stateMutability": "nonpayable",
      "type": "function"
    },
    {
      "inputs": [
        {
          "internalType": "address",
          "name": "owner",
          "type": "address"
        }
      ],
      "name": "balanceOf",
      "outputs": [
        {
          "internalType": "uint256",
          "name": "",
          "type": "uint256"
        }
      ],
      "stateMutability": "view",
      "type": "function"
    },
    {
      "inputs": [
        {
          "internalType": "uint256",
          "name": "tokenId",
          "type": "uint256"
        }
      ],
      "name": "burn",
      "outputs": [],
      "stateMutability": "nonpayable",
      "type": "function"
    },
    {
      "inputs": [
        {
          "internalType": "address",
          "name": "from",
          "type": "address"
        },
        {
          "internalType": "address",
          "name": "to",
          "type": "address"
        },
        {
          "internalType": "uint256",
          "name": "tokenId",
          "type": "uint256"
        }
      ],
      "name": "forceTransfer",
      "outputs": [],
      "stateMutability": "nonpayable",
      "type": "function"
    },
    {
      "inputs": [
        {
          "internalType": "uint256",
          "name": "tokenId",
          "type": "uint256"
        }
      ],
      "name": "getApproved",
      "outputs": [
        {
          "internalType": "address",
          "name": "",
          "type": "address"
        }
      ],
      "stateMutability": "view",
      "type": "function"
    },
    {
      "inputs": [
        {
          "internalType": "address",
          "name": "owner",
          "type": "address"
        },
        {
          "internalType": "address",
          "name": "operator",
          "type": "address"
        }
      ],
      "name": "isApprovedForAll",
      "outputs": [
        {
          "internalType": "bool",
          "name": "",
          "type": "bool"
        }
      ],
      "stateMutability": "view",
      "type": "function"
    },
    {
      "inputs": [
        {
          "internalType": "uint256",
          "name": "",
          "type": "uint256"
        }
      ],
      "name": "isLocked",
      "outputs": [
        {
          "internalType": "bool",
          "name": "",
          "type": "bool"
        }
      ],
      "stateMutability": "view",
      "type": "function"
    },
    {
      "inputs": [
        {
          "internalType": "uint256",
          "name": "tokenId",
          "type": "uint256"
        }
      ],
      "name": "lockTicket",
      "outputs": [],
      "stateMutability": "nonpayable",
      "type": "function"
    },
    {
      "inputs": [
        {
          "internalType": "address",
          "name": "to",
          "type": "address"
        },
        {
          "internalType": "string",
          "name": "uri",
          "type": "string"
        }
      ],
      "name": "mintTicket",
      "outputs": [
        {
          "internalType": "uint256",
          "name": "",
          "type": "uint256"
        }
      ],
      "stateMutability": "nonpayable",
      "type": "function"
    },
    {
      "inputs": [],
      "name": "name",
      "outputs": [
        {
          "internalType": "string",
          "name": "",
          "type": "string"
        }
      ],
      "stateMutability": "view",
      "type": "function"
    },
    {
      "inputs": [],
      "name": "owner",
      "outputs": [
        {
          "internalType": "address",
          "name": "",
          "type": "address"
        }
      ],
      "stateMutability": "view",
      "type": "function"
    },
    {
      "inputs": [
        {
          "internalType": "uint256",
          "name": "tokenId",
          "type": "uint256"
        }
      ],
      "name": "ownerOf",
      "outputs": [
        {
          "internalType": "address",
          "name": "",
          "type": "address"
        }
      ],
      "stateMutability": "view",
      "type": "function"
    },
    {
      "inputs": [],
      "name": "renounceOwnership",
      "outputs": [],
      "stateMutability": "nonpayable",
      "type": "function"
    },
    {
      "inputs": [
        {
          "internalType": "uint256",
          "name": "tokenId",
          "type": "uint256"
        },
        {
          "internalType": "uint256",
          "name": "salePrice",
          "type": "uint256"
        }
      ],
      "name": "royaltyInfo",
      "outputs": [
        {
          "internalType": "address",
          "name": "receiver",
          "type": "address"
        },
        {
          "internalType": "uint256",
          "name": "amount",
          "type": "uint256"
        }
      ],
      "stateMutability": "view",
      "type": "function"
    },
    {
      "inputs": [
        {
          "internalType": "address",
          "name": "from",
          "type": "address"
        },
        {
          "internalType": "address",
          "name": "to",
          "type": "address"
        },
        {
          "internalType": "uint256",
          "name": "tokenId",
          "type": "uint256"
        }
      ],
      "name": "safeTransferFrom",
      "outputs": [],
      "stateMutability": "nonpayable",
      "type": "function"
    },
    {
      "inputs": [
        {
          "internalType": "address",
          "name": "from",
          "type": "address"
        },
        {
          "internalType": "address",
          "name": "to",
          "type": "address"
        },
        {
          "internalType": "uint256",
          "name": "tokenId",
          "type": "uint256"
        },
        {
          "internalType": "bytes",
          "name": "data",
          "type": "bytes"
        }
      ],
      "name": "safeTransferFrom",
      "outputs": [],
      "stateMutability": "nonpayable",
      "type": "function"
    },
    {
      "inputs": [
        {
          "internalType": "address",
          "name": "operator",
          "type": "address"
        },
        {
          "internalType": "bool",
          "name": "approved",
          "type": "bool"
        }
      ],
      "name": "setApprovalForAll",
      "outputs": [],
      "stateMutability": "nonpayable",
      "type": "function"
    },
    {
      "inputs": [
        {
          "internalType": "uint256",
          "name": "tokenId",
          "type": "uint256"
        },
        {
          "internalType": "address",
          "name": "receiver",
          "type": "address"
        },
        {
          "internalType": "uint96",
          "name": "feeNumerator",
          "type": "uint96"
        }
      ],
      "name": "setTokenRoyalty",
      "outputs": [],
      "stateMutability": "nonpayable",
      "type": "function"
    },
    {
      "inputs": [
        {
          "internalType": "bytes4",
          "name": "interfaceId",
          "type": "bytes4"
        }
      ],
      "name": "supportsInterface",
      "outputs": [
        {
          "internalType": "bool",
          "name": "",
          "type": "bool"
        }
      ],
      "stateMutability": "view",
      "type": "function"
    },
    {
      "inputs": [],
      "name": "symbol",
      "outputs": [
        {
          "internalType": "string",
          "name": "",
          "type": "string"
        }
      ],
      "stateMutability": "view",
      "type": "function"
    },
    {
      "inputs": [
        {
          "internalType": "uint256",
          "name": "tokenId",
          "type": "uint256"
        }
      ],
      "name": "tokenURI",
      "outputs": [
        {
          "internalType": "string",
          "name": "",
          "type": "string"
        }
      ],
      "stateMutability": "view",
      "type": "function"
    },
    {
      "inputs": [
        {
          "internalType": "address",
          "name": "from",
          "type": "address"
        },
        {
          "internalType": "address",
          "name": "to",
          "type": "address"
        },
        {
          "internalType": "uint256",
          "name": "tokenId",
          "type": "uint256"
        }
      ],
      "name": "transferFrom",
      "outputs": [],
      "stateMutability": "nonpayable",
      "type": "function"
    },
    {
      "inputs": [
        {
          "internalType": "address",
          "name": "newOwner",
          "type": "address"
        }
      ],
      "name": "transferOwnership",
      "outputs": [],
      "stateMutability": "nonpayable",
      "type": "function"
    },
    {
      "inputs": [
        {
          "internalType": "uint256",
          "name": "tokenId",
          "type": "uint256"
        }
      ],
      "name": "unlockTicket",
      "outputs": [],
      "stateMutability": "nonpayable",
      "type": "function"
    }
  ],
  "bytecode": "0x608060405234801562000010575f80fd5b5060405162001ecb38038062001ecb8339810160408190526200003391620001dd565b806040518060400160405280600a815260200169109054c8151a58dad95d60b21b81525060405180604001604052806004815260200163109054d560e21b815250815f9081620000849190620002aa565b506001620000938282620002aa565b5050506001600160a01b038116620000c557604051631e4fbdf760e01b81525f60048201526024015b60405180910390fd5b620000d081620000e6565b50620000df816101f462000137565b5062000376565b600980546001600160a01b038381166001600160a01b0319831681179093556040519116919082907f8be0079c531659141344cd1fd0a4f28419497f9722a3daafe3b4186f6b6457e0905f90a35050565b6127106001600160601b0382168110156200017857604051636f483d0960e01b81526001600160601b038316600482015260248101829052604401620000bc565b6001600160a01b038316620001a357604051635b6cc80560e11b81525f6004820152602401620000bc565b50604080518082019091526001600160a01b039092168083526001600160601b039091166020909201829052600160a01b90910217600755565b5f60208284031215620001ee575f80fd5b81516001600160a01b038116811462000205575f80fd5b9392505050565b634e487b7160e01b5f52604160045260245ffd5b600181811c908216806200023557607f821691505b6020821081036200025457634e487b7160e01b5f52602260045260245ffd5b50919050565b601f821115620002a557805f5260205f20601f840160051c81016020851015620002815750805b601f840160051c820191505b81811015620002a2575f81556001016200028d565b50505b505050565b81516001600160401b03811115620002c657620002c66200020c565b620002de81620002d7845462000220565b846200025a565b602080601f83116001811462000314575f8415620002fc5750858301515b5f19600386901b1c1916600185901b1785556200036e565b5f85815260208120601f198616915b82811015620003445788860151825594840194600190910190840162000323565b50858210156200036257878501515f19600388901b60f8161c191681555b505060018460011b0185555b505050505050565b611b4780620003845f395ff3fe608060405234801561000f575f80fd5b5060043610610153575f3560e01c80636352211e116100bf578063a22cb46511610079578063a22cb465146102f3578063b88d4fde14610306578063c87b56dd14610319578063e985e9c51461032c578063f2fde38b1461033f578063f6aacfb114610352575f80fd5b80636352211e1461029957806370a08231146102ac578063715018a6146102bf57806371e20902146102c75780638da5cb5b146102da57806395d89b41146102eb575f80fd5b80632a55205a116101105780632a55205a146101fa57806333bebb771461022c57806342842e0e1461023f57806342966c68146102525780635388842c146102655780635944c75314610286575f80fd5b806301ffc9a71461015757806306fdde031461017f578063081812fc14610194578063095ea7b3146101bf57806310bcbec7146101d457806323b872dd146101e7575b5f80fd5b61016a610165366004611556565b610374565b60405190151581526020015b60405180910390f35b610187610384565b60405161017691906115be565b6101a76101a23660046115d0565b610413565b6040516001600160a01b039091168152602001610176565b6101d26101cd366004611602565b61043a565b005b6101d26101e23660046115d0565b610449565b6101d26101f536600461162a565b6104f0565b61020d610208366004611663565b610579565b604080516001600160a01b039093168352602083019190915201610176565b6101d261023a36600461162a565b6105fc565b6101d261024d36600461162a565b6106be565b6101d26102603660046115d0565b6106d8565b61027861027336600461170a565b6106ec565b604051908152602001610176565b6101d2610294366004611768565b610768565b6101a76102a73660046115d0565b61077b565b6102786102ba3660046117b0565b610785565b6101d26107ca565b6101d26102d53660046115d0565b6107dd565b6009546001600160a01b03166101a7565b610187610882565b6101d26103013660046117c9565b610891565b6101d2610314366004611802565b61089c565b6101876103273660046115d0565b6108b4565b61016a61033a366004611879565b6108bf565b6101d261034d3660046117b0565b6108ec565b61016a6103603660046115d0565b600b6020525f908152604090205460ff1681565b5f61037e82610926565b92915050565b60605f8054610392906118aa565b80601f01602080910402602001604051908101604052809291908181526020018280546103be906118aa565b80156104095780601f106103e057610100808354040283529160200191610409565b820191905f5260205f20905b8154815290600101906020018083116103ec57829003601f168201915b5050505050905090565b5f61041d8261094a565b505f828152600460205260409020546001600160a01b031661037e565b610445828233610982565b5050565b61045161098f565b5f818152600260205260409020546001600160a01b03166104b15760405162461bcd60e51b8152602060048201526015602482015274151a58dad95d08191bd95cc81b9bdd08195e1a5cdd605a1b60448201526064015b60405180910390fd5b5f818152600b6020526040808220805460ff191690555182917f2c0c680ae904e095d6fc75bb8dc3619de3a3a52d161df3cc92cbce36225f489e91a250565b6001600160a01b03821661051957604051633250574960e11b81525f60048201526024016104a8565b5f6105258383336109bc565b9050836001600160a01b0316816001600160a01b031614610573576040516364283d7b60e01b81526001600160a01b03808616600483015260248201849052821660448201526064016104a8565b50505050565b5f82815260086020526040812080548291906001600160a01b03811690600160a01b90046001600160601b0316816105cc5750506007546001600160a01b03811690600160a01b90046001600160601b03165b5f6127106105e36001600160601b038416896118f6565b6105ed919061190d565b92989297509195505050505050565b61060461098f565b5f818152600260205260409020546001600160a01b038481169116146106805760405162461bcd60e51b815260206004820152602b60248201527f46726f6d2061646472657373206973206e6f7420746865206f776e6572206f6660448201526a081d1a19481d1a58dad95d60aa1b60648201526084016104a8565b5f818152600b602052604090205460ff16156106ae5760405162461bcd60e51b81526004016104a89061192c565b6106b9838383610a31565b505050565b6106b983838360405180602001604052805f81525061089c565b6106e061098f565b6106e981610a4b565b50565b5f6106f561098f565b600a80545f918261070583611974565b9190505590506107158482610a83565b61071f8184610a9c565b80846001600160a01b03167ff16f1e8b680ea7f1e8a1f849eb82762cba60ddcef854d36909e3173483281c8c8560405161075991906115be565b60405180910390a39392505050565b61077061098f565b6106b9838383610aeb565b5f61037e8261094a565b5f6001600160a01b0382166107af576040516322718ad960e21b81525f60048201526024016104a8565b506001600160a01b03165f9081526003602052604090205490565b6107d261098f565b6107db5f610bab565b565b6107e561098f565b5f818152600260205260409020546001600160a01b03166108405760405162461bcd60e51b8152602060048201526015602482015274151a58dad95d08191bd95cc81b9bdd08195e1a5cdd605a1b60448201526064016104a8565b5f818152600b6020526040808220805460ff191660011790555182917f34307a3f5fca60843fdf0d44a7fe1daa84960c21ce84e4d1ecae51d9114cac5991a250565b606060018054610392906118aa565b610445338383610bfc565b6108a78484846104f0565b6105733385858585610cc3565b606061037e82610deb565b6001600160a01b039182165f90815260056020908152604080832093909416825291909152205460ff1690565b6108f461098f565b6001600160a01b03811661091d57604051631e4fbdf760e01b81525f60048201526024016104a8565b6106e981610bab565b5f6001600160e01b0319821663152a902d60e11b148061037e575061037e82610e6c565b5f818152600260205260408120546001600160a01b03168061037e57604051637e27328960e01b8152600481018490526024016104a8565b6106b98383836001610e90565b6009546001600160a01b031633146107db5760405163118cdaa760e01b81523360048201526024016104a8565b5f828152600260205260408120546001600160a01b031680158015906109ea57506001600160a01b03851615155b15610a1d575f848152600b602052604090205460ff1615610a1d5760405162461bcd60e51b81526004016104a89061192c565b610a28858585610f94565b95945050505050565b6106b983838360405180602001604052805f815250611086565b5f610a575f835f6109bc565b90506001600160a01b03811661044557604051637e27328960e01b8152600481018390526024016104a8565b610445828260405180602001604052805f815250611091565b5f828152600660205260409020610ab382826119d0565b506040518281527ff8e1a15aba9398e019f0b49df1a4fde98ee17ae345cb5f6b5e2c27f5033e8ce79060200160405180910390a15050565b6127106001600160601b038216811015610b315760405163dfd1fc1b60e01b8152600481018590526001600160601b0383166024820152604481018290526064016104a8565b6001600160a01b038316610b6157604051634b4f842960e11b8152600481018590525f60248201526044016104a8565b506040805180820182526001600160a01b0393841681526001600160601b0392831660208083019182525f968752600890529190942093519051909116600160a01b029116179055565b600980546001600160a01b038381166001600160a01b0319831681179093556040519116919082907f8be0079c531659141344cd1fd0a4f28419497f9722a3daafe3b4186f6b6457e0905f90a35050565b6001600160a01b038316610c255760405163a9fbf51f60e01b81525f60048201526024016104a8565b6001600160a01b038216610c5757604051630b61174360e31b81526001600160a01b03831660048201526024016104a8565b6001600160a01b038381165f81815260056020908152604080832094871680845294825291829020805460ff191686151590811790915591519182527f17307eab39ab6107e8899845ad3d59bd9653f200f220920489ca2b5937696c31910160405180910390a3505050565b6001600160a01b0383163b15610de457604051630a85bd0160e11b81526001600160a01b0384169063150b7a0290610d05908890889087908790600401611a8c565b6020604051808303815f875af1925050508015610d3f575060408051601f3d908101601f19168201909252610d3c91810190611ac8565b60015b610da6573d808015610d6c576040519150601f19603f3d011682016040523d82523d5f602084013e610d71565b606091505b5080515f03610d9e57604051633250574960e11b81526001600160a01b03851660048201526024016104a8565b805160208201fd5b6001600160e01b03198116630a85bd0160e11b14610de257604051633250574960e11b81526001600160a01b03851660048201526024016104a8565b505b5050505050565b6060610df68261094a565b505f610e0c60408051602081019091525f815290565b90505f610e18846110a8565b905081515f03610e29579392505050565b805115610e5b578181604051602001610e43929190611ae3565b60405160208183030381529060405292505050919050565b610e6484611147565b949350505050565b5f6001600160e01b03198216632483248360e11b148061037e575061037e826111b8565b8080610ea457506001600160a01b03821615155b15610f65575f610eb38461094a565b90506001600160a01b03831615801590610edf5750826001600160a01b0316816001600160a01b031614155b8015610ef25750610ef081846108bf565b155b15610f1b5760405163a9fbf51f60e01b81526001600160a01b03841660048201526024016104a8565b8115610f635783856001600160a01b0316826001600160a01b03167f8c5be1e5ebec7d5bd14f71427d1e84f3dd0314c0f7b2291e5b200ac8c7c3b92560405160405180910390a45b505b50505f90815260046020526040902080546001600160a01b0319166001600160a01b0392909216919091179055565b5f828152600260205260408120546001600160a01b0390811690831615610fc057610fc0818486611207565b6001600160a01b03811615610ffa57610fdb5f855f80610e90565b6001600160a01b0381165f90815260036020526040902080545f190190555b6001600160a01b03851615611028576001600160a01b0385165f908152600360205260409020805460010190555b5f8481526002602052604080822080546001600160a01b0319166001600160a01b0389811691821790925591518793918516917fddf252ad1be2c89b69c2b068fc378daa952ba7f163c4a11628f55a4df523b3ef91a4949350505050565b6108a784848461126b565b61109b8383611318565b6106b9335f858585610cc3565b5f8181526006602052604090208054606091906110c4906118aa565b80601f01602080910402602001604051908101604052809291908181526020018280546110f0906118aa565b801561113b5780601f106111125761010080835404028352916020019161113b565b820191905f5260205f20905b81548152906001019060200180831161111e57829003601f168201915b50505050509050919050565b60606111528261094a565b505f61116860408051602081019091525f815290565b90505f8151116111865760405180602001604052805f8152506111b1565b8061119084611379565b6040516020016111a1929190611ae3565b6040516020818303038152906040525b9392505050565b5f6001600160e01b031982166380ac58cd60e01b14806111e857506001600160e01b03198216635b5e139f60e01b145b8061037e57506301ffc9a760e01b6001600160e01b031983161461037e565b611212838383611409565b6106b9576001600160a01b03831661124057604051637e27328960e01b8152600481018290526024016104a8565b60405163177e802f60e01b81526001600160a01b0383166004820152602481018290526044016104a8565b6001600160a01b03821661129457604051633250574960e11b81525f60048201526024016104a8565b5f6112a083835f6109bc565b90506001600160a01b0381166112cc57604051637e27328960e01b8152600481018390526024016104a8565b836001600160a01b0316816001600160a01b031614610573576040516364283d7b60e01b81526001600160a01b03808616600483015260248201849052821660448201526064016104a8565b6001600160a01b03821661134157604051633250574960e11b81525f60048201526024016104a8565b5f61134d83835f6109bc565b90506001600160a01b038116156106b9576040516339e3563760e11b81525f60048201526024016104a8565b60605f6113858361146a565b60010190505f8167ffffffffffffffff8111156113a4576113a4611683565b6040519080825280601f01601f1916602001820160405280156113ce576020820181803683370190505b5090508181016020015b5f19016f181899199a1a9b1b9c1cb0b131b232b360811b600a86061a8153600a85049450846113d857509392505050565b5f6001600160a01b03831615801590610e645750826001600160a01b0316846001600160a01b03161480611442575061144284846108bf565b80610e645750505f908152600460205260409020546001600160a01b03908116911614919050565b5f8072184f03e93ff9f4daa797ed6e38ed64bf6a1f0160401b83106114a85772184f03e93ff9f4daa797ed6e38ed64bf6a1f0160401b830492506040015b6d04ee2d6d415b85acef810000000083106114d4576d04ee2d6d415b85acef8100000000830492506020015b662386f26fc1000083106114f257662386f26fc10000830492506010015b6305f5e100831061150a576305f5e100830492506008015b612710831061151e57612710830492506004015b60648310611530576064830492506002015b600a831061037e5760010192915050565b6001600160e01b0319811681146106e9575f80fd5b5f60208284031215611566575f80fd5b81356111b181611541565b5f5b8381101561158b578181015183820152602001611573565b50505f910152565b5f81518084526115aa816020860160208601611571565b601f01601f19169290920160200192915050565b602081525f6111b16020830184611593565b5f602082840312156115e0575f80fd5b5035919050565b80356001600160a01b03811681146115fd575f80fd5b919050565b5f8060408385031215611613575f80fd5b61161c836115e7565b946020939093013593505050565b5f805f6060848603121561163c575f80fd5b611645846115e7565b9250611653602085016115e7565b9150604084013590509250925092565b5f8060408385031215611674575f80fd5b50508035926020909101359150565b634e487b7160e01b5f52604160045260245ffd5b5f67ffffffffffffffff808411156116b1576116b1611683565b604051601f8501601f19908116603f011681019082821181831017156116d9576116d9611683565b816040528093508581528686860111156116f1575f80fd5b858560208301375f602087830101525050509392505050565b5f806040838503121561171b575f80fd5b611724836115e7565b9150602083013567ffffffffffffffff81111561173f575f80fd5b8301601f8101851361174f575f80fd5b61175e85823560208401611697565b9150509250929050565b5f805f6060848603121561177a575f80fd5b8335925061178a602085016115e7565b915060408401356001600160601b03811681146117a5575f80fd5b809150509250925092565b5f602082840312156117c0575f80fd5b6111b1826115e7565b5f80604083850312156117da575f80fd5b6117e3836115e7565b9150602083013580151581146117f7575f80fd5b809150509250929050565b5f805f8060808587031215611815575f80fd5b61181e856115e7565b935061182c602086016115e7565b925060408501359150606085013567ffffffffffffffff81111561184e575f80fd5b8501601f8101871361185e575f80fd5b61186d87823560208401611697565b91505092959194509250565b5f806040838503121561188a575f80fd5b611893836115e7565b91506118a1602084016115e7565b90509250929050565b600181811c908216806118be57607f821691505b6020821081036118dc57634e487b7160e01b5f52602260045260245ffd5b50919050565b634e487b7160e01b5f52601160045260245ffd5b808202811582820484141761037e5761037e6118e2565b5f8261192757634e487b7160e01b5f52601260045260245ffd5b500490565b60208082526028908201527f5469636b6574206973206c6f636b656420666f72206d61726b6574706c616365604082015267206c697374696e6760c01b606082015260800190565b5f60018201611985576119856118e2565b5060010190565b601f8211156106b957805f5260205f20601f840160051c810160208510156119b15750805b601f840160051c820191505b81811015610de4575f81556001016119bd565b815167ffffffffffffffff8111156119ea576119ea611683565b6119fe816119f884546118aa565b8461198c565b602080601f831160018114611a31575f8415611a1a5750858301515b5f19600386901b1c1916600185901b178555610de2565b5f85815260208120601f198616915b82811015611a5f57888601518255948401946001909101908401611a40565b5085821015611a7c57878501515f19600388901b60f8161c191681555b5050505050600190811b01905550565b6001600160a01b03858116825284166020820152604081018390526080606082018190525f90611abe90830184611593565b9695505050505050565b5f60208284031215611ad8575f80fd5b81516111b181611541565b5f8351611af4818460208801611571565b835190830190611b08818360208801611571565b0194935050505056fea2646970667358221220e577bbac08a0b06b1a99d23245a0e3b6f90ff16046fe8f77d7c2a7d104645cad64736f6c63430008180033",
  "linkReferences": {},
  "deployedLinkReferences": {}
}